:020000040000FA
:08000000803102288731ED2F49
:1009AA008A302200970008001630210097000800BC
:1009BA007908F5007808F40008007908F300780847
:1009CA00F200080079082000BE007808BD0008007F
:1009DA00640080010131890BEE2C0034240094015B
:1009EA000830950096014F309200951208002100B8
:1009FA001508C0391F38950020009501F6010B1122
:100A0A000800703021009900980122009601210007
:100A1A001A1F102D112D0C2D080020009901970185
:100A2A00960111101708F1001608F000013098001D
:100A3A0008002F0091139201C030930095010430F1
:100A4A009400A001A101A301A401A601A701A90183
:100A5A00AA01B630980070309900CB309100080096
:100A6A00220090018C018D018E0108302100900036
:100A7A008C010F308D00BF308E003F3023008D0077
:100A8A003F308C00240090018D012100951722002F
:100A9A009D0108008431F32485318531352585315E
:100AAA008531062585318431D92485318431D5248F
:100ABA0085318531122585318431FC248531853192
:100ACA006B25853185311E258531080008302300C4
:100ADA009F0090309D0024309E0040309B000330E0
:100AEA009C000030F8000030F9008431DD248531A3
:100AFA000030F8000030F9008431E22485310030FA
:100B0A00F8000030F9008431E7248531F701080044
:100B1A0085314F258531640001308531B525853110
:100B2A00023086314326853103308631D12685311C
:100B3A00043087315F2785312F00A016A1162117AF
:100B4A0020162930FC009630FB007F30890BAB2D34
:100B5A00FB0BAB2DFC0BAB2D0000902D8031022836
:100B6A00FA001A2E2F002616A617A917A01729165B
:100B7A002316A313422E2F002612A617A917A01375
:100B8A0029122312A313422E2F002616A617A913E1
:100B9A00A01729162312A317422E2F002616A617CE
:100BAA00A917A01729122312A317422E2F002612C3
:100BBA00A617A917A01329122316A317422E2F002E
:100BCA002616A613A917A01729122316A317422E11
:100BDA002F002616A613A917A01729162316A3173E
:100BEA00422E2F002616A617A917A0132912231280
:100BFA00A313422E2F002616A617A917A0172916E7
:100C0A002316A317422E2F002616A617A917A017D8
:100C1A0029122316A317422E2F002612A613A91350
:100C2A00A01329122312A313422E7A08F800F901FD
:100C3A007908003A0319222E112E7808003A03196E
:100C4A00B72D013A0319C02D033A0319C92D013AE8
:100C5A000319D22D073A0319DB2D013A0319E42DA2
:100C6A00033A0319ED2D013A0319F62D0F3A031928
:100C7A00FF2D013A0319082E112E0800FA00A82E9A
:100C8A002F00A61627162A162116A916A31624120D
:100C9A00D02E2F00A61227162A162112A912A31245
:100CAA002412D02E2F00A61627162A122116A916AC
:100CBA00A3122416D02E2F00A61627162A1621169E
:100CCA00A912A3122416D02E2F00A61227162A160E
:100CDA002112A912A3162416D02E2F00A616271207
:100CEA002A162116A912A3162416D02E2F00A616EC
:100CFA0027122A162116A916A3162416D02E2F005B
:100D0A00A61627162A162112A912A3122412D02EC9
:100D1A002F00A61627162A162116A916A316241678
:100D2A00D02E2F00A61627162A162116A912A316A8
:100D3A002416D02E2F00A61227122A122112A91227
:100D4A00A3122412D02E7A08F800F9017908003A81
:100D5A000319B02E9F2E7808003A0319452E013A3E
:100D6A0003194E2E033A0319572E013A0319602E1E
:100D7A00073A0319692E013A0319722E033A031925
:100D8A007B2E013A0319842E0F3A03198D2E013A4C
:100D9A000319962E9F2E0800FA00362F2F00A71649
:100DAA00A614A914A014AA16A416A3105E2F2F0025
:100DBA00A712A614A914A010AA12A412A3105E2F97
:100DCA002F00A716A614A910A014AA16A412A314D9
:100DDA005E2F2F00A716A614A914A014AA12A412F3
:100DEA00A3145E2F2F00A712A614A914A010AA12EA
:100DFA00A416A3145E2F2F00A716A610A914A014D8
:100E0A00AA12A416A3145E2F2F00A716A610A914BF
:100E1A00A014AA16A416A3145E2F2F00A716A614B0
:100E2A00A914A010AA12A412A3105E2F2F00A716AD
:100E3A00A614A914A014AA16A416A3145E2F2F0090
:100E4A00A716A614A914A014AA12A416A3145E2FF6
:100E5A002F00A712A610A910A010AA12A412A3105C
:100E6A005E2F7A08F800F9017908003A03193E2F33
:100E7A002D2F7808003A0319D32E013A0319DC2ED4
:100E8A00033A0319E52E013A0319EE2E073A03191C
:100E9A00F72E013A0319002F033A0319092F013AD1
:100EAA000319122F0F3A03191B2F013A0319242F82
:100EBA002D2F0800FA00C42F2F00271726152915F1
:100ECA0020152A1724172311EC2F2F002713261574
:100EDA00291520112A1324132311EC2F2F00271769
:100EEA002615291120152A1724132315EC2F2F0054
:100EFA0027172615291520152A1324132315EC2F35
:100F0A002F0027132615291520112A132417231514
:100F1A00EC2F2F0027172611291520152A1324171D
:100F2A002315EC2F2F0027172611291520152A170C
:100F3A0024172315EC2F2F00271726152915201102
:100F4A002A1324132311EC2F2F00271726152915EE
:100F5A0020152A1724172315EC2F2F0027172615DB
:100F6A00291520152A1324172315EC2F2F002713D0
:100F7A002611291120112A1324132311EC2F7A0880
:100F8A00F800F9017908003A0319CC2FBB2F780829
:100F9A00003A0319612F013A03196A2F033A031918
:100FAA00732F013A03197C2F073A0319852F013A47
:100FBA0003198E2F033A0319972F013A0319A02F09
:100FCA000F3A0319A92F013A0319B22FBB2F0800B0
:100FDA00703084000030850008308431ED24873178
:100FEA0020308400003085001F308431ED248731A1
:100FFA00200085318D2D0034003400340034003453
:10100A000034003400340034003400340034003436
:10101A000034003400340034003400340034003426
:10102A000034003400340034003400340034003416
:06103A0000340034003414
:020000040001F9
:04000E00E4FFFFFF0D
:00000001FF
