:020000040000FA
:1000000080313328911508007E1480318B190B1C28
:100010000D289F311F27803131280B1F31282100E7
:10002000111E1C282000111E1C28210069088A00AE
:1000300068080A00803131282100911E29282000FB
:10004000911E2928210067088A0066080A0080316D
:1000500031282100931E31282000931E3128903131
:1000600049207E10090080313528EC308400223090
:1000700085000430FE000130FF009F31BD27803134
:10008000FB01FC01FD016030840000308500103070
:10009000FE000030FF009F31BD278031A03084007A
:1000A000003085004E30FE000030FF009F31BD273C
:1000B0002200A001A101A201A301A401A501A601A2
:1000C000A7017E1020008A312D2A2000BE01BF0129
:1000D000C001C101BA01BB01BC01BD016D30860088
:1000E000233087000530010203187828003008000B
:1000F0006D308600233087002130010203189D29CE
:100100006D30860023308700010803199D29C60140
:10011000C7018E280130C6070030C73D6D3086000C
:10012000233087004708803AAF0080302F02031D3C
:100130009B280108460203180E29EC302000AF006E
:100140002230B00046082F0786004708303D870060
:100150000B300102031C8A280C30AF002330B000A2
:1001600046082F0786004708303D87000B30010204
:10017000031C8A282C30AF002330B00046082F071C
:1001800086004708303D87000B300102031C8A2897
:100190004C30AF002330B00046082F0786004708D8
:1001A000303D87000B300102031C8A28EC30AF0081
:1001B0002230B00046082F0786004708303D8700F0
:1001C0000108B1003108BE000C30AF002330B00090
:1001D00046082F0786004708303D87000108B10018
:1001E0003108BF002C30AF002330B00046082F0785
:1001F00086004708303D87000108B1003108C00083
:100200004C30AF002330B00046082F078600470867
:10021000303D87000108B1003108C10020003E08D0
:10022000031976283F080319762840080319762811
:100230004108031976286D308600233087000108B5
:10024000FF3EC600FF3003180030C7002B29FF30E7
:10025000C607FF30C73DC71B9D29EC30AF002230D9
:10026000B00046082F0786004708303D87000B3056
:100270000102031C27290C30AF002330B0004608D0
:100280002F0786004708303D87000B300102031C12
:1002900027292C30AF002330B00046082F078600F6
:1002A0004708303D87000B300102031C27294C30E2
:1002B000AF002330B00046082F0786004708303DC6
:1002C00087000B300102031C2729EC30AF002230DD
:1002D000B00046082F0786004708303D8700010818
:1002E000B1003108BA000C30AF002330B00046082E
:1002F0002F0786004708303D87000108B10031080C
:10030000BB002C30AF002330B00046082F0786001A
:100310004708303D87000108B1003108BC004C306F
:10032000AF002330B00046082F0786004708303D55
:1003300087000108B1003108BD003E083F07A60054
:10034000A701A70D3F083E02A000A101031CA103C5
:100350006430A2000030A30091317C21803121085B
:10036000A9002008A8009731052780312708B3008D
:100370002608B20040084107A600A701A70D4108C2
:100380004002A000A101031CA1036430A2000030C0
:10039000A30091317C2180312108A9002008A80008
:1003A0009731052780312708B5002608B4003A08A0
:1003B0003B07A600A701A70D3B083A02A000A10138
:1003C000031CA1036430A2000030A30091317C2102
:1003D00080312108A9002008A80097310527803125
:1003E0002708B7002608B6003C083D07A600A7016D
:1003F000A70D3D083C02A000A101031CA10364302D
:10040000A2000030A30091317C2180312108A90095
:100410002008A8009731052780312708B900260851
:10042000B80032083602C2003308373BC300340834
:100430003802C4003508393BC5004208E6074308C6
:10044000E73D4408E4074508E53D6708803AAF000A
:1004500080302F02031D2E2A32306602031C352AFB
:1004600001302000E2000030452A20006708803A71
:10047000AF007F302F02031D3F2ACF3066020318E2
:10048000472AFF302000E200FF30E3004A2A200024
:10049000E201E3016508803AAF0080302F02031DBE
:1004A000532A32306402031C5A2A01302000E00033
:1004B00000306A2A20006508803AAF007F302F02A2
:1004C000031D642ACF30640203186C2AFF30200019
:1004D000E000FF30E1006F2A2000E001E101620846
:1004E0006304031DF02A60086104031DF02A430819
:1004F000A1004208A00091314B2180312000210849
:10050000803AAF0080302F02031D882A1430200269
:100510000318762820004508A1004408A000913166
:100520004B21803120002108803AAF0080302F021B
:10053000031D9C2A1430200203187628200042084C
:100540004304031DAD2A44084504031DAD2A0130B0
:100550002100DA070030DB3DBA2A42084304031DBC
:10056000B52A440845040319BA2A01302100D807E6
:100570000030D93D21005B08803A2000AF00803078
:100580002F02031DC62A0A3021005A02031C7628B6
:1005900021005908803A2000AF0080302F02031D4F
:1005A000D42A023021005802031C76282000420879
:1005B0004304031DE12A44084504031DE12A0130D8
:1005C000EA2A420843040319EE2A440845040319A1
:1005D000EE2A02302100D6000030D700013008009A
:1005E0004308A1004208A00091314B218031200036
:1005F0002108803AAF0080302F02031D012B1430F8
:1006000020020318762820004508A1004408A00015
:1006100091314B21803120002108803AAF00803099
:100620002F02031D152B14302002031876282000FA
:1006300042084304031D252B44084504031D252BB4
:1006400001302100DA070030DB3D21005B08803AF1
:100650002000AF0080302F02031D312B0A30210013
:100660005A02031C76282000E201E301E001E101C7
:10067000E601E701E401E50176282000A2004E2C06
:100680002F002A15291523152015241527152611A5
:1006900008002F002A1129152315201124112711D4
:1006A000261108002F002A152915231120152415BD
:1006B0002711261508002F002A15291523152015A6
:1006C00024112711261508002F002A11291523159A
:1006D000201124112715261508002F002A1529118D
:1006E0002315201524112715261508002F002A157B
:1006F00029112315201524152715261508002F006C
:100700002A15291523152011241127112611080057
:100710002F002A1529152315201524152715261510
:1007200008002F002A152915231520152411271537
:10073000261508002F002A15291523152011241528
:100740002715261508002F002A1129112315201519
:1007500024152715261508002F002A152911231105
:10076000201524152715261108002F002A112915F8
:100770002315201524152711261508002F002A15EA
:1007800029112311201524152715261508002F00DF
:100790002A152911231120112415271526150800C3
:1007A0002F002A1529112315201524152715261584
:1007B00008002F002A1129152315201124152715AB
:1007C000261508002F002A112911231120112415A4
:1007D0002715261108002F002A1129152315201589
:1007E00024152711261108002F002A112911231181
:1007F000201524152715261108002F002A1129116C
:100800002315201124152711261508002F002A1161
:1008100029112315201524152711261508002F004E
:100820002A1529152311201124152715261508002E
:100830002F002A1129112311201124152711261503
:1008400008002F002A11291123152015241127151E
:10085000261508002F002A1129112311201524150F
:100860002715261508002F002A11291523152015F4
:1008700024152715261108002F002A1129152315E4
:10088000201524112715261508002F002A112911DB
:100890002311201124112711261108002208A0007D
:1008A000A1012108003A0319562C452C2008003AD2
:1008B0000319402B013A0319492B033A0319522B10
:1008C000013A03195B2B073A0319642B013A031908
:1008D0006D2B033A0319762B013A03197F2B0F3A3C
:1008E0000319882B013A0319912B033A03199A2B08
:1008F000013A0319A32B073A0319AC2B013A031948
:10090000B52B033A0319BE2B013A0319C72B3F3A03
:100910000319402B013A0319492B033A0319522BAF
:10092000013A03195B2B073A0319642B013A0319A7
:100930006D2B033A0319762B013A03197F2B0F3ADB
:100940000319882B013A0319912B783A03199A2B32
:10095000033A0319A32B013A0319AC2B073A0319E5
:10096000B52B013A0319BE2B033A0319C72B013AE1
:100970000319D02B0F3A0319D92B013A0319E22B93
:10098000033A0319EB2B063A0319F42B023A031925
:10099000FD2B013A0319062C1F3A03190F2C023ABA
:1009A0000319182C013A0319212C073A03192A2C90
:1009B000013A0319332C0C3A03193C2C383A031929
:1009C0009A2B033A0319A32B013A0319AC2B073ACC
:1009D0000319B52B013A0319BE2B033A0319C72B90
:1009E000013A0319D02B0F3A0319D92B013A0319F5
:1009F000E22B033A0319EB2B063A0319F42B023AC4
:100A00000319FD2B013A0319062C1F3A03190F2C69
:100A1000023A0319182C013A0319212C073A031939
:100A20002A2C013A0319332C0C3A03193C2C452C7F
:100A300008002000A2002A2E2F00A915A914A31433
:100A4000A014A315A615A61008002F00A911A9141B
:100A5000A314A010A311A611A61008002F00A91519
:100A6000A914A310A014A315A611A61408002F0002
:100A7000A915A914A314A014A311A611A614080063
:100A80002F00A911A914A314A010A311A615A61430
:100A900008002F00A915A910A314A014A311A615CE
:100AA000A61408002F00A915A910A314A014A315BB
:100AB000A615A61408002F00A915A914A314A010A8
:100AC000A311A611A61008002F00A915A914A3149C
:100AD000A014A315A615A61408002F00A915A91483
:100AE000A314A014A311A615A61408002F00A9157D
:100AF000A914A314A010A315A615A61408002F006E
:100B0000A911A910A314A014A315A615A6140800D2
:100B10002F00A915A910A310A014A315A615A6109F
:100B200008002F00A911A914A314A014A315A6113D
:100B3000A61408002F00A915A910A310A014A3152E
:100B4000A615A61408002F00A915A910A310A0101F
:100B5000A315A615A61408002F00A915A910A31403
:100B6000A014A315A615A61008002F00A911A914FA
:100B7000A314A010A315A615A61408002F00A911F0
:100B8000A910A310A010A315A615A61008002F00E9
:100B9000A911A914A314A014A315A611A610080046
:100BA0002F00A911A910A310A014A315A615A61013
:100BB00008002F00A911A910A314A010A315A611B5
:100BC000A61408002F00A911A910A314A014A3159E
:100BD000A611A61408002F00A915A914A310A0108F
:100BE000A315A615A61408002F00A911A910A3107B
:100BF000A010A315A611A61408002F00A911A91072
:100C0000A314A014A311A615A61408002F00A9115F
:100C1000A910A310A014A315A615A61408002F0050
:100C2000A911A914A314A014A315A615A6100800B1
:100C30002F00A911A914A314A014A311A615A6147A
:100C400008002F00A911A910A310A010A311A6112C
:100C5000A61008002208A000A1012108003A0319EB
:100C6000322E212E2008003A03191C2D013A0319B7
:100C7000252D033A03192E2D013A0319372D073A72
:100C80000319402D013A0319492D033A0319522D36
:100C9000013A03195B2D0F3A0319642D013A031928
:100CA0006D2D033A0319762D013A03197F2D073A6A
:100CB0000319882D013A0319912D033A03199A2D2E
:100CC000013A0319A32D4E3A0319762D033A03195D
:100CD0007F2D013A0319882D073A0319912D013A06
:100CE00003199A2D033A0319A32D013A0319AC2DC8
:100CF0000F3A0319B52D013A0319BE2D033A031912
:100D0000C72D063A0319D02D023A0319D92D013AFD
:100D10000319E22D1F3A0319EB2D023A0319F42DA2
:100D2000013A0319FD2D073A0319062E013A03195A
:100D30000F2E0C3A0319182E383A0319762D033A60
:100D400003197F2D013A0319882D073A0319912DB4
:100D5000013A03199A2D033A0319A32D013A0319F5
:100D6000AC2D0F3A0319B52D013A0319BE2D033AE4
:100D70000319C72D063A0319D02D023A0319D92DAC
:100D8000013A0319E22D1F3A0319EB2D023A031918
:100D9000F42D013A0319FD2D073A0319062E013AE5
:100DA00003190F2E0C3A0319182E212E0800923029
:100DB0002000C2004208B600393096312426863120
:100DC000C3004308C400AB3044060319ED2E9C3029
:100DD00044060319ED2E00300800BD01073096319E
:100DE000B5268631003A0319EB2E8130C200420845
:100DF000B600DB30C3004308B700393093317723A6
:100E000086318330C2004208B600F630C300430882
:100E1000B70039309331772386318E30C2004208D3
:100E2000B6008730C3004308B700393093317723C9
:100E300086319D30C2004208B600B7013930933187
:100E4000772386319E30C2004208B600B7013930A0
:100E50009331772386318D30C2004208B60060306E
:100E6000C3004308B700393093317723863100300F
:100E7000943107248631003A0319EB2E0230943165
:100E8000C9248631003A0319EB2E01309231B22287
:100E90008631003A0319EB2E003090310B20863159
:100EA000003A0319EB2E32309F31F2278631003A97
:100EB0000319EB2EFF30B900FF30BA0092317022D7
:100EC0008631003A0319EB2E0030B900BA00923196
:100ED0004F228631003A0319EB2E8C30C2004208B3
:100EE000B6001130C3004308B7003930933177237F
:100EF00086319030C2004208B600B701B70A3930D7
:100F00009331772386319F30C2004208B600B70183
:100F1000393093317723863128309F31D627863177
:100F2000003A0319EB2E1E309F31E4278631003A38
:100F30000319EB2EA230C2004208B6004030C300B5
:100F40004308B7003930933177238631023093312B
:100F5000A7238631003A0319EB2E00309331D723B3
:100F60008631003A0319EB2E01309231D7228631B7
:100F7000003A0319EB2EA430C2004208B600B701B4
:100F80003930933177238631A530C2004208B6004C
:100F9000B7013930933177238631A730C200420838
:100FA000B600B7013930933177238631A930C200BA
:100FB0004208B600B7013930933177238631A63025
:100FC000C2004208B600C930C3004308B700393038
:100FD000933177238631AA30C2004208B600B701A8
:100FE0003930933177238631003093312123863194
:100FF000003A0319EB2E0130080016309700080064
:10100000220090018C018D018E010830210090009A
:101010008C01CF308D009B308E000C3023008D0072
:101020008C012400900103308D00210095132200D3
:101030009D012700961095149410B6302000A00052
:101040001E30A1009F3176278B1508009F312B277A
:101050008831003A031D36285E289E31E2260800BA
:101060009E31E62608009E31EE2608002100330856
:101070002000AE00210032082000AD00A030860024
:10108000003087004631413F8A00403F0A008831E6
:101090002000AF00B0013008003A0319502833286F
:1010A0002F08013A03193328033A03192D28013A6E
:1010B00003193028073A0319332833282100431035
:1010C0003E082000B00021003D082000AF002100B4
:1010D000BD0A0319BE0A20002F08860030088700C9
:1010E00001089F312527883101302100BF020030DF
:1010F000C03B3F084004031D7F2806300800033032
:1011000008000030F000F1009031192088313430AF
:101110007302273003197202031CA12835307302B1
:101120005230031972020318A128FB01FC01EA01E5
:101130002100EA012000EB010130F4007408E9000D
:1011400008002B307302C13003197202031CB4284B
:101150002C3073028830031972020318B42803304C
:10116000F4007408E90008000830730235300319F0
:101170007202031C0B2909307302603003197202DA
:1011800003180B2908307B020318CD280310EB0D40
:101190000130F4007408EB07EE2810307B020318CE
:1011A000D92803102100EA0D0130F4007408EA0781
:1011B000EE2818307B020318E4280310EA0D0130F2
:1011C000F4007408EA07EE2820307B020318EE28AA
:1011D0000310FC0D0130F4007408FC070130F4002A
:1011E0007408FB0720307B06031D08007C09F4000F
:1011F000F501F50920006A08F600F7017508770681
:10120000031D042974087606031D08000230F4004B
:101210007408E900080003307302CB30031972022E
:10122000031C080004307302F6300319720203181D
:10123000080008307B02031820290310EB0DEE286C
:1012400010307B020318282903102100EA0DEE2834
:1012500018307B0203182F290310EA0DEE282030E6
:101260007B020318EE280310FC0DEE282100560324
:101270005704031D41290530D4000030D50001304A
:101280000800023056065704031D4C290630D400CE
:101290000030D500013008002000620A031D5929E2
:1012A000630A031D592960086104031D592903308D
:1012B000782962036304031D632960086104031D28
:1012C00063290430782962086304031D6D296003D3
:1012D0006104031D6D290230782962086304031D2F
:1012E0007D29600A031D7D29610A031D7D290130C6
:1012F0002100D4000030D5002B2A620A031DA82942
:10130000630A031DA82960036104031DA829650859
:10131000A1006408A00091314B21893120002008F0
:10132000A4002108A5006708A1006608A00091316B
:101330004B21893120002508803AA6002108803AF7
:101340002602031DA52920082402031C57296B2906
:1013500062036304031DD329600A031DD329610AB4
:10136000031DD3296508A1006408A00091314B2119
:10137000893120002008A4002108A5006708A100E9
:101380006608A00091314B21893120002508803A60
:10139000A6002108803A2602031DD0292008240235
:1013A000031C61297729620A031D002A630A031DB1
:1013B000002A600A031D002A610A031D002A65082D
:1013C000A1006408A00091314B2189312000200840
:1013D000A4002108A5006708A1006608A0009131BB
:1013E0004B21893120002508803AA6002108803A47
:1013F0002602031DFD2920082402031C57297729F2
:1014000062036304031D292A60036104031D292A62
:101410006508A1006408A00091314B2189312000AA
:101420002008A4002108A5006708A1006608A00004
:1014300091314B21893120002508803AA6002108EE
:10144000803A2602031D262A20082402031C612953
:101450006B290030080001300800923191228A3156
:101460002000E901FC01EA012100EA012000EB0172
:10147000E8018130A0000830A1009F3146278A3161
:1014800019302000A0001F30A1009F3176278A313B
:101490008B170B178631D7268A31003A0319552A44
:1014A0000130DD000030DE00572ADD01DE015D087D
:1014B0000F3983313D238A3101309431C9248A3177
:1014C00001309731A8278A31640020006808031989
:1014D000042B2F00A012A01121112012E62A553052
:1014E0008C3185248A3150308E3142268A31203029
:1014F000853119258A31203083313D238A31022BF1
:1015000044308C3185248A314E308E3142268A31E6
:101510002030853119258A31203083313D238A31AD
:10152000022B4C308C3185248A3145308E31422655
:101530008A314630853119258A31543083313D2333
:101540008A31022B52308C3185248A3149308E31D8
:1015500042268A315430853119258A312030833131
:101560003D238A31022B4E308C3185248A3145301F
:101570008E3142268A314130853119258A315230E7
:1015800083313D238A31022B46308C3185248A31C8
:1015900041308E3142268A315230853119258A31C7
:1015A000203083313D238A31022B4E308C3185240B
:1015B0008A314F308E3142268A314E30853119259D
:1015C0008A31453083313D238A31022B8B314123CF
:1015D0008A314908003A0319EE2AD52A4808013A07
:1015E0000319912A033A0319A22A013A03196F2A0F
:1015F000073A0319802A013A0319B32A033A031957
:10160000C42AD52A2000E8010230690603190C2BF0
:1016100003306906031D642A6B08953130258A3131
:10162000DA005A08DF005F08DA000430DA36890B86
:10163000162B5A080F398C3185248A3120005F0817
:101640000F398E3142268A31201620006A089531E2
:1016500030258A31DA005A08DF005F08DA000430EA
:10166000DA36890B302B5A080F39853119258A3122
:1016700020005F080F3983313D238A312000E901C2
:10168000642A2000D601AF30CA004A08B6003930BB
:10169000963124268B3101390319592B8030CA0029
:1016A0004A08B6003930963124268B314139031D62
:1016B0004B2CC801C9010800AE30CA004A08B60068
:1016C0003930963124268B31CB004B08D700570890
:1016D00003194B2CFC30CA004A08B6007030B70022
:1016E0002330B8005708CB00CC01CB35CC0DCB351F
:1016F000CC0D4B08B9004C08BA003930953166253D
:101700008B315708CA000130CA35FF3E031D842BB8
:101710004A35CB004B08D60004305602031C4B2C34
:10172000D801D9015908803ACA0080304A02031D05
:101730009B2B560858020318382C70302000CA0022
:101740002330CB0058084A07860059084B3D8700D4
:101750000108CC006C308600233087000108EC3E85
:10176000CD00CE012230CE3D4D0886004E088700C8
:101770004C0881007130CA002330CB0058084A075A
:10178000860059084B3D87000108CC006C3086006C
:10179000233087000108CD00CE010C30CF0023306C
:1017A000D0004D084F07D1004E08503DD2005108DF
:1017B0008600520887004C0881007230CA0023302E
:1017C000CB0058084A07860059084B3D870001089E
:1017D000CC006C308600233087000108CD00CE019C
:1017E0002C30CF002330D0004D084F07D1004E08D9
:1017F000503DD20051088600520887004C088100F5
:101800007330CA002330CB0058084A0786005908B5
:101810004B3D87000108CC006C30860023308700E8
:101820000108CD00CE014C30CF002330D0004D0850
:101830004F07D1004E08503DD20051088600520893
:1018400087004C0881000130CA006C3086002330CC
:1018500087004A0881070130CA006D3086002330B6
:1018600087004A0881070430D8070030D93D922B01
:10187000803165208B31003A0319412C89313621A2
:101880008B316C3086002330870081016D308600FB
:10189000233087008101640002302000CB00383003
:1018A000CA00AD30890B522CCA0B522CCB0B522CD8
:1018B000AF302000CA004A08B600393096312426DD
:1018C0008B31CB004B08D50055185C2B0230200023
:1018D000CB003830CA00AD30890B6C2CCA0B6C2C95
:1018E000CB0B6C2C893136218B312100550820001F
:1018F000D400210054082000D3009131972120000A
:101900005408C9005308C8000800A200952D2F00F4
:101910002916A917A317A01723162616A613080021
:101920002F002912A917A317A01323122612A613FA
:1019300008002F002916A917A313A0172316261293
:10194000A61708002F002916A917A317A0172312FE
:101950002612A61708002F002912A917A317A013F3
:1019600023122616A61708002F002916A913A3175D
:10197000A01723122616A61708002F002916A91350
:10198000A317A01723162616A61708002F0029163E
:10199000A917A317A01323122612A61308002F00BD
:1019A0002916A917A317A01723162616A61708008D
:1019B0002F002916A917A317A01723122616A6175A
:1019C00008002F002916A917A317A01323162616FF
:1019D000A61708002F002912A913A317A017231672
:1019E0002616A61708002F002916A913A313A0175F
:1019F00023162616A61308002F002912A917A317CD
:101A0000A01723162612A61708002F002916A917BB
:101A1000A313A01323162616A61708002F002916B5
:101A2000A913A313A01323162616A61708002F0028
:101A30002916A913A317A01723162616A613080004
:101A40002F002912A917A317A01323162616A617CD
:101A500008002F002912A913A313A013231626167A
:101A6000A61308002F002912A917A317A0172316E1
:101A70002612A61308002F002912A913A313A017DA
:101A800023162616A61308002F002912A913A31740
:101A9000A01323162612A61708002F002912A91337
:101AA000A317A01723162612A61708002F00291621
:101AB000A917A313A01323162616A61708002F0094
:101AC0002912A913A313A01323162612A617080080
:101AD0002F002912A913A317A01723122616A61741
:101AE00008002F002912A913A313A01723162616E6
:101AF000A61708002F002912A917A317A01723164D
:101B00002616A61308002F002912A917A317A0173D
:101B100023122616A61708002F002912A913A313B3
:101B2000A01323122612A61308002208A000A10168
:101B30002108003A03199D2D8C2D2008003A031925
:101B4000872C013A0319902C033A0319992C013A76
:101B50000319A22C073A0319AB2C013A0319B42C30
:101B6000033A0319BD2C013A0319C62C0F3A031985
:101B7000CF2C013A0319D82C033A0319E12C013A6E
:101B80000319EA2C073A0319F32C013A0319FC2C28
:101B9000033A0319052D013A03190E2D4E3A031984
:101BA000E12C033A0319EA2C013A0319F32C073A02
:101BB0000319FC2C013A0319052D033A03190E2DC4
:101BC000013A0319172D0F3A0319202D013A031971
:101BD000292D033A0319322D063A03193B2D023AF7
:101BE0000319442D013A03194D2D1F3A0319562D9F
:101BF000023A03195F2D013A0319682D073A0319B8
:101C0000712D013A03197A2D0C3A0319832D383AB4
:101C10000319E12C033A0319EA2C013A0319F32CB6
:101C2000073A0319FC2C013A0319052D033A03194D
:101C30000E2D013A0319172D0F3A0319202D013AE1
:101C40000319292D033A0319322D063A03193B2DA6
:101C5000023A0319442D013A03194D2D1F3A031975
:101C6000562D023A03195F2D013A0319682D073AE0
:101C70000319712D013A03197A2D0C3A0319832D9A
:101C80008C2D08002000A200532F2F00A9162A1621
:101C900024162116A316A616271208002F00A91233
:101CA0002A1624162112A312A612271208002F00AA
:101CB000A9162A1624122116A316A6122716080002
:101CC0002F00A9162A1624162116A312A6122716CB
:101CD00008002F00A9122A1624162112A312A616F4
:101CE000271608002F00A9162A1224162116A3125F
:101CF000A616271608002F00A9162A122416211648
:101D0000A316A616271608002F00A9162A162416B1
:101D10002112A312A612271208002F00A9162A16B4
:101D200024162116A316A616271608002F00A9169A
:101D30002A1624162116A312A616271608002F000D
:101D4000A9162A1624162112A316A616271608006D
:101D50002F00A9122A1224162116A316A61627163A
:101D600008002F00A9162A1224122116A316A6165F
:101D7000271208002F00A9122A1624162116A316CE
:101D8000A612271608002F00A9162A1224122116BF
:101D9000A316A616271608002F00A9162A12241229
:101DA0002112A316A616271608002F00A9162A121C
:101DB00024162116A316A616271208002F00A91212
:101DC0002A1624162112A316A616271608002F007D
:101DD000A9122A1224122112A316A61627120800ED
:101DE0002F00A9122A1624162116A316A6122712AE
:101DF00008002F00A9122A1224122116A316A616D3
:101E0000271208002F00A9122A1224162112A31645
:101E1000A612271608002F00A9122A12241621162E
:101E2000A316A612271608002F00A9162A16241298
:101E30002112A316A616271608002F00A9122A128F
:101E400024122112A316A612271608002F00A91289
:101E50002A1224162116A312A616271608002F00F0
:101E6000A9122A1224122116A316A6162716080054
:101E70002F00A9122A1624162116A316A616271219
:101E800008002F00A9122A1624162116A312A6163E
:101E9000271608002F00A9122A1224122112A312B9
:101EA000A612271208002208A000A1012108003A6A
:101EB00003195B2F4A2F2008003A0319452E013AD7
:101EC00003194E2E033A0319572E013A0319602EB7
:101ED000073A0319692E013A0319722E033A0319BE
:101EE0007B2E013A0319842E0F3A03198D2E013AE5
:101EF0000319962E033A03199F2E013A0319A82EAF
:101F0000073A0319B12E013A0319BA2E033A0319FD
:101F1000C32E013A0319CC2E4E3A03199F2E033AD1
:101F20000319A82E013A0319B12E073A0319BA2E44
:101F3000013A0319C32E033A0319CC2E013A0319AF
:101F4000D52E0F3A0319DE2E013A0319E72E033A74
:101F50000319F02E063A0319F92E023A0319022F3B
:101F6000013A03190B2F1F3A0319142F023A0319D0
:101F70001D2F013A0319262F073A03192F2F013A73
:101F80000319382F0C3A0319412F383A03199F2EA1
:101F9000033A0319A82E013A0319B12E073A03197F
:101FA000BA2E013A0319C32E033A0319CC2E013A73
:101FB0000319D52E0F3A0319DE2E013A0319E72E25
:101FC000033A0319F02E063A0319F92E023A0319BF
:101FD000022F013A03190B2F1F3A0319142F023A4B
:101FE00003191D2F013A0319262F073A03192F2F22
:101FF000013A0319382F0C3A0319412F4A2F0800D0
:1020000021001508C0391F389500200095012100D6
:10201000EB010B110800BB008930B9003908B6008C
:102020003B08BA003A08B7003930933177230130C2
:1020300008002000181D2328181071089700700848
:1020400096001814080071089700700896000800A0
:102050002000990197019601111017082100DF0057
:10206000200016082100DE00313020009800080012
:10207000043026009A0098019901B4302000A00095
:102080001E30A1009F314627200093122100931695
:102090000800931226001808F8007808F9001908BB
:1020A000F8007808FA007A08F3007908F2002100B5
:1020B0005D088A005C080A00903108002100C31DF9
:1020C0000800200021082100BE0020002008210077
:1020D000BD00200023082100C000200022082100AC
:1020E000BF00C311080020002E08A1002D08A00089
:1020F0000230A2000030A30090315E209031003009
:102100002000A900AA000030AB000030AC009F31D5
:10211000A5270430080020002E08A1002D08A000EB
:102120000130A2000030A30090315E2090310030D9
:102130002000A900AA000030AB000030AC009F31A5
:10214000A5270430080020002E08A1002D08A000BB
:102150000130A2000030A30090315E2090310030A9
:102160002000A900AA000030AB000030AC009F3175
:10217000A5270230080020002E08A1002D08A0008D
:102180000230A2000030A30090315E209031003078
:102190002000A900AA000030AB000030AC009F3145
:1021A000A5270230080020002E08A1002D08A0005D
:1021B0000230A2000030A30090315E209031003048
:1021C0002000A900AA000030AB000030AC009F3115
:1021D000A5270430080020002E08A1002D08A0002B
:1021E0000130A2000030A30090315E209031003019
:1021F0002000A900AA000030AB000030AC009F31E5
:10220000A5270230080020002E08A1002D08A000FC
:102210000230A2000030A30090315E2091310030E6
:102220002000A900AA000030AB000030AC009F31B4
:10223000A5270230080020002E08A1002D08A000CC
:102240000130A2000030A30090315E2091310030B7
:102250002000A900AA000030AB000030AC009F3184
:10226000A527043008002F00911301309200A03000
:102270009300103095009401A001A101A301A401D5
:10228000A601A701A901AA01BE3098001430990047
:10229000CB30910008002108803AA2008030220251
:1022A000031D5429013020020318080020002009D2
:1022B000A2002109A300A20A0319A30A2208A00070
:1022C0002308A100080023001908F00020006C0872
:1022D000203E860001308700700881000130F00048
:1022E0007008EC0708306C020318EC010130F000B4
:1022F00070082100ED070800A401A501201C842915
:102300002208A4072308A53D0130A235A30D890B9F
:1023100085290130A136A00C890B8A2920082104C7
:10232000031D7E292508A1002408A00008006C30A8
:1023300086002330870081016D30860023308700BE
:102340008101E601E701E401E501E201E301E001C9
:10235000E1012100DA01DB01D801D901D601D70161
:10236000D401D5010800083020006D020318CD29E2
:102370006E08CC3E86008701010823009A000130D8
:10238000F00070082000EE0708306E020318EE011E
:102390000130F0007008ED0708002100111208005C
:1023A000A101A10A2100C318EA294311BC3086000B
:1023B00000308700FF3081009E31BE2691319E3172
:1023C000C42691319E31C126210042082000A00080
:1023D0002008A100200021080800B400B501B50ABA
:1023E0002100C3180A2AC3142000B50134080319B8
:1023F000FF29C1308600003087000130042AC13037
:10240000860000308700023081009E31C72691315E
:102410009F31902720003508080020002D088600F5
:102420002E0887004231403FA000413FA1002D0807
:1024300086002E088700403FA200413FA300903154
:102440005E20923100302000A900AA000030AB00CD
:102450000030AC009F31A5270230080020002D0875
:1024600086002E0887004231403FA000413FA10076
:102470002D0886002E088700403FA200413FA300A0
:1024800090315E20923100302000A900AA00003077
:10249000AB000030AC009F31A5270230080039089E
:1024A000BB003B08BD003A08BB003B08BE008630BD
:1024B000BB003B08B6003D08BC003C08B700393003
:1024C0009331772392318730BB003B08B6003E083A
:1024D000BC003C08B7003930933177230130080045
:1024E0003908BB003B08BD003A08BB003B08BE00F2
:1024F0008430BB003B08B6003D08BC003C08B70078
:1025000039309331772392318530BB003B08B600D8
:102510003E08BC003C08B7003930933177230130C6
:1025200008009F317E2792318831002092319F31FF
:10253000872792318731FD2792319F3106279231CB
:102540009F311427923190313820923190312820D8
:10255000923190310020923195319E259231913106
:1025600033210800BF008F30BD003D08B600393070
:10257000963124269231BE003E08C0000330BD00D3
:102580003D08BF05FC30BD003D08C0053F08BD004B
:102590003D08C0048F30BD003D08B6004008BE00B5
:1025A0003E08B70039309331772301300800BF006F
:1025B000A330BD003D08B600393096312426923153
:1025C000BE003E08C0000730BD003D08BF05F83022
:1025D000BD003D08C0053F08BD003D08C004A33054
:1025E000BD003D08B6004008BE003E08B7003930C7
:1025F0009331772301300800BF00AB30BD003D08A8
:10260000B6003930963124269231BE003E08C00013
:102610000130BD003D08BF05FE30BD003D08C005CE
:102620003F08BD003D08C004AB30BD003D08B6000A
:102630004008BE003E08B70039309331772301309F
:102640000800C000AB30BD003D08B60039309631FF
:1026500024269331BE003E08BF000130BD003D0876
:10266000C0054035BD003D08C000FD30BD003D083F
:10267000BF054008BD003D08BF04AB30BD003D08AC
:10268000B6003F08BE003E08B700393093317723CB
:10269000013008009E31BE2693312100431C5C2B83
:1026A0009F312B279331003A03195C2BC1308600F0
:1026B000003087000F308100210041082000B10068
:1026C000B201B135B20D0030310784009830323D8F
:1026D0008500013F8A00003F0A0093312000B300CB
:1026E000C130860000308700330881000800B80040
:1026F00038089531E0259331003A0319782B8B3057
:10270000A9001030AA003730AB000030AC009F3178
:10271000A52793313630A0000030A1000130A2007F
:102720000030A30090315E20933100302000A900DA
:10273000AA00AB019F31B12793319F31022793311A
:102740009131D0219331013A031D0800A02BC00024
:10275000A330BD003D08B6003930963124269331B0
:10276000BE003E08BF000330BD003D08C005400864
:10277000BD000430BD35FF3E031DBA2B3D35BE0004
:102780003E08C0009F30BD003D08BF054008BD00A9
:102790003D08BF04A330BD003D08B6003F08BE00A1
:1027A0003E08B70039309331772301300800C0006C
:1027B000A330BD003D08B600393096312426933150
:1027C000BE003E08BF000330BD003D08C005400804
:1027D000BD000230BD35FF3E031DEA2B3D35BE0076
:1027E0003E08C000E730BD003D08BF054008BD0001
:1027F0003D08BF04A330BD003D08B6003F08BE0041
:102800003E08B70039309331772301300800C0000B
:102810008F30BD003D08B600393096312426943102
:10282000BE003E08BF000330BD003D08C0054008A3
:10283000BD000530BD35FF3E031D1A2C3D35BE00E1
:102840003E08C0003F30BD003D08BF054008BD0048
:102850003D08BF048F30BD003D08B6003F08BE00F4
:102860003E08B70039309331772301300800C000AB
:102870009030BD003D08B6003930963124269431A1
:10288000BE003E08BF000330BD003D08C005400843
:10289000BD000330BD35FF3E031D4A2C3D35BE0053
:1028A0003E08C000CF30BD003D08BF054008BD0058
:1028B0003D08BF049030BD003D08B6003F08BE0093
:1028C0003E08B700393093317723013008002100EA
:1028D000C315742C9E31EA26080080310220033093
:1028E00008009E31EE2608002D082000AE002100D1
:1028F0002C082000AD00210021088A0020080A00D1
:1029000094312000AF00B0013008003A0319892C3F
:10291000712C2F08013A0319712C033A03196A2C00
:10292000013A03196A2C073A03196D2C712C08001F
:1029300021004310C2308600003087000230810041
:10294000A72C9E31EA2608009E31EE2608003108A9
:102950002000AE00210030082000AD00A03086002D
:10296000003087004431413F8A00403F0A009431E3
:102970002000AF00B0013008003A0319C02CA42C8D
:102980002F08023A0319A12C013A0319A12CA42CF7
:1029900008002000C0008F30BD003D08B60039306F
:1029A000963124269431BE003E08BF000330BD009E
:1029B0003D08C0054008BD000130BD35FF3E031D88
:1029C000DD2C3D35BE003E08C000F330BD003D08A3
:1029D000BF054008BD003D08BF048F30BD003D0865
:1029E000B6003F08BE003E08B70039309331772368
:1029F0000130080020006C08C43E86008701810178
:102A000023001D1D0F2D20006C08C43E8600870189
:102A10008114210065088A0064080A0095312300AA
:102A20009D1C1E2D20006C08C43E860087010115E8
:102A3000210063088A0062080A00953120006C08B2
:102A4000C43E86008701010803192D2D210061086D
:102A50008A0060080A00953108009131632108005E
:102A6000A30023080F39A0000430A035890B352DB1
:102A70002308A1000430A136890B3B2D21080F3912
:102A80002004A2002208A30023083339A00002304A
:102A9000A035890B482D2308A1000230A136890BEF
:102AA0004E2D210833392004A2002208A300230858
:102AB0005539A0000130A035890B5B2D23365539DF
:102AC0002004A1002108A30023080800BB00380847
:102AD000BF003708BE003A08BD003908BC003B08FB
:102AE0009531E0259531003A03196F2D0D30A9007D
:102AF0001230AA003C30AB000030AC009F31A5275B
:102B000095313630A0000030A1000130A200003025
:102B1000A30090315E20953100302000A900AA006A
:102B2000AB019F31B12795319F310227953191310A
:102B3000D0219531013A031D0800972D9112FA30EA
:102B40002000A0001430A1009F316627953111129A
:102B5000B3302000A0001130A1009F316E279531C5
:102B6000083023009F0090309D0024309E004030AC
:102B70009B0003309C00B5302000A0001E30A10057
:102B80009F3156279531D6302000A0001E30A1007D
:102B90009F315E279531BB302000A0001E30A10080
:102BA0009F314E27EC012000EF01EE010830A2001A
:102BB0002208ED00EC01FD012100ED019116080055
:102BC000A000A101A10A21004319212EBC308600DA
:102BD000003087002000200881002100C310431529
:102BE0004310C1308600003087000E308100F43081
:102BF000BA000130BB00C315B730A0001E30A100E1
:102C0000AC01AD01B730A2001E30A300AE01AF0190
:102C1000B730A4001E30A500B001B101B730A60046
:102C20001E30A700B201B301B930A8001E30A900C0
:102C3000B401B5019E31BE2695319F319A272000FF
:102C4000A101200021080800B8002A30B700370889
:102C5000BC000230BA000030BB0038089531E025D6
:102C60009631003A03192D2EA330A9001030AA0086
:102C70003C30AB000030AC009F31A5279631363098
:102C8000A0000030A1000130A2000030A30090316C
:102C90005E20963100302000A900AA00AB019F31D0
:102CA000B12796319F31022796319131D02196314B
:102CB000B7003708B90039030319552E390803192D
:102CC000692EFF30BA07FF30BB3D3A083B04031DB5
:102CD0002D2E3C0808009E31D32696312000AF00EF
:102CE00021003D0886003E08870020002F08810053
:102CF00001302100BD070030BE3D0130BF02003071
:102D0000C03B3F0840040319892E9E31DE26053062
:102D10000800C315912E9E31FA2608009E31F62632
:102D200008002D082000AE0021002C082000AD0076
:102D3000210021088A0020080A0096312000AF00F7
:102D4000B0013008003A0319A62E8E2E2F08013A42
:102D500003198E2E033A03198B2E013A03198B2E79
:102D6000073A03198E2E8E2E0800C1008030BE0057
:102D70003E08B6003930963124269631BF003F0810
:102D8000C000400A031DC62E003008003D0801396E
:102D9000BE003E08BD00073041020318EB2E3D087F
:102DA0000319DE2E0130BE00410AD72EBE35890B35
:102DB000D62E3E08BF003F08C004F82E0130BE00EA
:102DC000410AE32EBE35890BE22E3E08FF3ABF00D2
:102DD0003F08C005F82E07304106031DF82E3D08B8
:102DE0000319F72E7F30BE003E08C000F82EC00148
:102DF0008030BE003E08B6004008BF003F08B70064
:102E000039309331772301300800AC01A71F0F2F11
:102E1000A609A709A60A0319A70AAC01AC0AA91FAB
:102E20001A2FA809A909A80A0319A90A0130AA009A
:102E30002A08AC06AD01AE01260827040319492F64
:102E4000AB01AB0AA71B2E2F0130A635A70D890BAE
:102E5000252F0130AA002A08AB07222F0130AD35FB
:102E6000AE0D890B2F2F27082902031D392F2608A5
:102E70002802031C402F2608A8022708A93B2D146E
:102E80000130A736A60C890B412F0130AB02031D80
:102E90002E2F2C080319512FAD09AE09AD0A0319C5
:102EA000AE0A2E08A7002D08A6000800A8002008DA
:102EB00021040319822F2808A400A501A435A50D1B
:102EC000A030A6000030A7002408260786002508A9
:102ED000273D87002008C03F2108C13F2808A400E3
:102EE000A501A435A50DAC30A6000030A70024082C
:102EF000260786002508273D87002208C03F2308B3
:102F0000C13F08002808A400A501A435A50DA030E4
:102F1000A6000030A7002408260786002508273DC4
:102F20008700B730C03F1E30C13F2808A400A5016C
:102F3000A435A50DAC30A6000030A7002408260754
:102F400086002508273D87000030C03FC13F0800AC
:102F5000C40091319721973183302000C20042088C
:102F6000B600FF30C3004308B700393093317723F0
:102F700097318E30C2004208B6008930C300430842
:102F8000B7003930933177239731003094313724AB
:102F90009731003A0319080044080319D12F013072
:102FA000D22F0030933121239731003A03190800C2
:102FB00001309231FC229731003A03190800BD011B
:102FC000BD0A00309631B5269731003A0319080042
:102FD000BD01BD0A03309631B5269731003A031979
:102FE0000800BD01BD0A02309631B5269731003A7E
:102FF00003190800BD01BD0A06309631B526080048
:103000000A341F343E341F3437341F342634083416
:103010006B34163431341F3467341434E2341E34C4
:10302000E6341E34EA341E34EE341E34F2341E34D8
:10303000F6341E34FA341E340F341F3498341434EA
:103D680008000800080001300800053008009131FB
:103D78006321080020009111080024009512080012
:103D8800210091110800240016140800240096143C
:103D980008002400161508002400961508002400C1
:103DA8001108080023001D121D160800240096168D
:103DB8001616080024009612161608009E31CA2608
:103DC800013008009E31CA26023008009E31CA26FA
:103DD800013008009E31CD26003008009E31DE26D5
:103DE800053008009E31DA260A3008009E31DA26AE
:103DF80009300800200091190800FE2E003091318A
:103E0800ED2108008A302200970008002100C31025
:103E1800C2010E3008002100C310C2010E30080094
:103E2800883098001030990008000130F0007008C0
:103E38002000E80008002700961C08009F31C927C9
:103E480008002000A0002008240091000800240099
:103E5800160E890C890C01390800210043109E3187
:103E6800D02604300800210043143C359F31252713
:103E7800033008002100431403143C0D9F3125270B
:103E88000530080021082100DD002000200821005D
:103E9800DC00080021082100E100200020082100A2
:103EA800E000080021082100E5002000200821008A
:103EB800E400080021082100E30020002008210078
:103EC800E200080021082100E70020002008210066
:103ED800E600080021082100E90020002008210050
:103EE800E800080021082100EF0020002008210038
:103EF800EE000800240094010830950096014F3028
:103F080092009512080070309900980122009601DD
:103F180021001A1B08008C2F2100C31C08009E31A9
:103F2800FE269F3193314A239F31902F2400951A02
:103F3800080094010830950096014F3092009516BC
:103F480008002A08A1002908A0002C08A3002B08B3
:103F5800A20000309731562708002A08A100290836
:103F6800A0002B08A2000030A3000230973156278A
:103F780008006400800101310130FE020030FF3B7F
:103F88007F087E0403190034BE2F21006E086F04D9
:103F98000319D32F6F088A006E080A009F31270083
:103FA80096100800BB00A030B9003908B6003B08DD
:103FB800BA003A08B7003930933177230130080046
:103FC800BB00A130B9003908B6003B08BA003A086E
:103FD800B70039309331772301300800BB008B30AC
:103FE800B9003908B6003B08BA003A08B7003930BA
:083FF80093317723013008002A
:020000040001F9
:04000E00E43FFF3F8D
:00000001FF
