:020000040000FA
:04000000803119280A
:100008007E1480310B1F09280A2817282100931E07
:100018000E280F2817282000931E132814281728A5
:100028008631B22680317E10090080311B28FB0101
:10003800FC01FD0120308400003085002C30873120
:10004800162780317E1020008531872D2000CE00B4
:100058003B292F002A1729152315201524172717A0
:100068002611052A2F002A132915231520112413D8
:1000780027132611052A2F002A17291523112015C1
:10008800241727132615052A2F002A1729152315A3
:100098002015241327132615052A2F002A1329159E
:1000A80023152011241327172615052A2F002A1790
:1000B800291123152015241327172615052A2F0083
:1000C8002A17291123152015241727172615052A5D
:1000D8002F002A1729152315201124132713261159
:1000E800052A2F002A172915231520152417271745
:1000F8002615052A2F002A1729152315201524133C
:1001080027172615052A2F002A1729152315201128
:10011800241727172615052A2F002A132911231516
:100128002015241727172615052A2F002A17291105
:1001380023112015241727172611052A2F002A1303
:10014800291523152015241727132615052A2F00EE
:100158002A17291123112015241727172615052AD0
:100168002F002A17291123112011241727172615C4
:10017800052A2F002A1729152315201524172717B4
:100188002615052A2F002A172915231520152417A7
:1001980027172615052A2F002A1729152315201594
:1001A800241727172615052A2F002A17291523157E
:1001B8002015241727172615052A2F002A17291571
:1001C80023152015241727172615052A2F002A1767
:1001D800291523152015241727172615052A2F005A
:1001E8002A17291523152015241727172615052A38
:1001F8002F002A1729152315201524172717261528
:10020800052A2F002A172915231520152417271723
:100218002615052A2F002A17291523152015241716
:1002280027172615052A2F002A1729152315201503
:10023800241727172615052A2F002A1729152315ED
:100248002015241727172615052A2F002A172915E0
:1002580023152015241727172615052A2F002A13DA
:10026800291123112011241327132611052A4E08BA
:10027800CC00CD014D08003A0319432932294C0816
:10028800003A03192D28013A03193628033A0319AD
:100298003F28013A03194828073A03195128013A17
:1002A80003195A28033A03196328013A03196C28D9
:1002B8000F3A03197528013A03197E28033A0319DE
:1002C8008728013A03199028073A03199928013A0F
:1002D8000319A228033A0319AB28013A0319B428D1
:1002E8003F3A03192D28013A03193628033A03190E
:1002F8003F28013A03194828073A03195128013AB7
:1003080003195A28033A03196328013A03196C2878
:100318000F3A03197528013A03197E28783A031908
:100328008728033A03199028013A03199928073AAC
:100338000319A228013A0319AB28033A0319B42870
:10034800013A0319BD280F3A0319C628013A0319BF
:10035800CF28033A0319D828013A0319E128073AA4
:100368000319EA28023A0319F328013A0319FC2869
:100378001F3A03190529033A03190E29073A0319E5
:100388001729013A031920290C3A03192929383A5F
:1003980003198728033A03199028013A0319992861
:1003A800073A0319A228013A0319AB28033A03199B
:1003B800B428013A0319BD280F3A0319C628013A8F
:1003C8000319CF28033A0319D828013A0319E12859
:1003D800073A0319EA28023A0319F328013A0319DC
:1003E800FC281F3A03190529033A03190E29073A6D
:1003F80003191729013A031920290C3A0319292945
:10040800322908000030F000F1008631DA26823106
:1004180034307302593003197202031C142A152A46
:10042800292A3530730220300319720203181D2A55
:100438001E2A292AFB01FC012000C801C901CA01A2
:100448000130F4007408C700012B2B3073028F3081
:1004580003197202031C312A322A412A2C307302F2
:1004680056300319720203183A2A3B2A412A0330EC
:10047800F40074082000C700012B083073026730AD
:1004880003197202031C492A4A2AAB2A093073024B
:100498002E30031972020318522A532AAB2A083045
:1004A8007B020318582A592A612A03102000CA0D12
:1004B8000130F4007408CA078A2A10307B02031836
:1004C800662A672A6F2A03102000C90D0130F4003C
:1004D8007408C9078A2A18307B020318742A752AF7
:1004E8007D2A03102000C80D0130F4007408C807E5
:1004F8008A2A20307B020318822A832A8A2A031038
:10050800FC0D0130F4007408FC078A2A0130F4005D
:100518007408FB0720307B06031D932A942A012BBD
:100528007C09F400F501F50920004808F600F701F8
:1005380075087706031DA22A74087606031DA52AE6
:10054800A62A012B0230F4007408C700012B0330DF
:100558007302FD3003197202031CB32AB42A012B5B
:1005680004307302C430031972020318BC2ABD2A6E
:10057800012B08307B020318C22AC32AC72A03109A
:100588002000CA0DE42A10307B020318CC2ACD2A99
:10059800D12A03102000C90DE42A18307B02031861
:1005A800D62AD72ADB2A03102000C80DE42A2030D7
:1005B8007B020318E02AE12AE42A0310FC0DE42A4E
:1005C8000130F4007408FB0720307B06031DED2A78
:1005D800EE2A012B7C09F400F501F50920004808F2
:1005E800F600F70175087706031DFC2A74087606DD
:1005F800031DFF2A002B012BA62A08002000CE008D
:100608009E2B2F00AA16A914A314A014A416A7168B
:10061800A610D82B2F00AA12A914A314A010A41254
:10062800A712A610D82B2F00AA16A914A310A0143D
:10063800A416A712A614D82B2F00AA16A914A3141F
:10064800A014A412A712A614D82B2F00AA12A9141A
:10065800A314A010A412A716A614D82B2F00AA160C
:10066800A910A314A014A412A716A614D82B2F00FF
:10067800AA16A910A314A014A416A716A614D82B5A
:100688002F00AA16A914A314A010A412A712A6102A
:10069800D82B2F00AA16A914A314A014A416A716C1
:1006A800A614D82B2F00AA16A914A314A014A412B8
:1006B800A716A614D82B2F00AA16A914A314A010A5
:1006C800A416A716A614D82B2F00AA12A910A31493
:1006D800A014A416A716A614D82B2F00AA16A91082
:1006E800A310A014A416A716A610D82B2F00AA1280
:1006F800A914A314A014A416A712A614D82B2F006B
:10070800AA16A910A310A014A416A716A614D82BCD
:100718002F00AA16A910A310A010A416A716A61495
:10072800D82B2F00AA12A910A310A010A412A71248
:10073800A610D82B4E08CC00CD014D08003A03195D
:10074800A62B952B4C08003A0319052B013A0319DF
:100758000E2B033A0319172B013A0319202B073ADA
:100768000319292B013A0319322B033A03193B2B9E
:10077800013A0319442B0F3A03194D2B013A031977
:10078800562B033A03195F2B013A0319682B073AD2
:100798000319712B013A03197A2B033A0319832B96
:1007A800013A03198C2B952B08002000CE00752CDC
:1007B8002F00A9162A1624162116A316A6162712E4
:1007C800AF2C2F00A9122A1624162112A312A61242
:1007D8002712AF2C2F00A9162A1624122116A316A9
:1007E800A6122716AF2C2F00A9162A162416211692
:1007F800A312A6122716AF2C2F00A9122A16241608
:100808002112A312A6162716AF2C2F00A9162A12FA
:1008180024162116A312A6162716AF2C2F00A916E8
:100828002A1224162116A316A6162716AF2C2F0057
:10083800A9162A1624162112A312A6122712AF2CC3
:100848002F00A9162A1624162116A316A61627164F
:10085800AF2C2F00A9162A1624162116A312A616A5
:100868002716AF2C2F00A9162A1624162112A31614
:10087800A6162716AF2C2F00A9122A122416211605
:10088800A316A6162716AF2C2F00A9162A12241273
:100898002116A316A6162712AF2C2F00A9122A1666
:1008A80024162116A316A6122716AF2C2F00A91658
:1008B8002A1224122116A316A6162716AF2C2F00CB
:1008C800A9162A1224122112A316A6162716AF2C2F
:1008D8002F00A9122A1224122112A312A6122712DB
:1008E800AF2C4E08CC00CD014D08003A03197D2CE1
:1008F8006C2C4C08003A0319DC2B013A0319E52B40
:10090800033A0319EE2B013A0319F72B073A031997
:10091800002C013A0319092C033A0319122C013A45
:1009280003191B2C0F3A0319242C013A03192D2CF7
:10093800033A0319362C013A03193F2C073A0319D5
:10094800482C013A0319512C033A03195A2C013A3D
:100958000319632C6C2C08002000CE004C2D2F00AE
:100968002916A917A317A01723162616A613862D2E
:100978002F002912A917A317A01323122612A613B2
:10098800862D2F002916A917A313A01723162612A0
:10099800A617862D2F002916A917A317A01723120B
:1009A8002612A617862D2F002912A917A317A01300
:1009B80023122616A617862D2F002916A913A3176A
:1009C800A01723122616A617862D2F002916A9135D
:1009D800A317A01723162616A617862D2F0029164B
:1009E800A917A317A01323122612A613862D2F00CA
:1009F8002916A917A317A01723162616A617862D9A
:100A08002F002916A917A317A01723122616A61711
:100A1800862D2F002916A917A317A013231626160B
:100A2800A617862D2F002912A913A317A01723167E
:100A38002616A617862D2F002916A913A313A0176B
:100A480023162616A613862D2F002912A917A317D9
:100A5800A01723162612A617862D2F002916A917C8
:100A6800A313A01323162616A617862D2F002916C2
:100A7800A913A313A01323162616A617862D2F0035
:100A88002912A913A313A01323122612A613862D25
:100A98004E08CC00CD014D08003A0319542D432DC2
:100AA8004C08003A0319B32C013A0319BC2C033A39
:100AB8000319C52C013A0319CE2C073A0319D72C70
:100AC800013A0319E02C033A0319E92C013A0319F6
:100AD800F22C0F3A0319FB2C013A0319042D033A9F
:100AE80003190D2D013A0319162D073A03191F2D65
:100AF800013A0319282D033A0319312D013A031934
:100B08003A2D432D080086313E2685312000C70145
:100B1800FC01C801C901CA010630CC000230CD0071
:100B28008731342785318B170B176400023020007A
:100B380047060319A02DA12DA72D03304706031D35
:100B4800A62DA72D992D4A088531E125853120004C
:100B5800D0005008D3005308D0000430D036890B99
:100B6800B22D50080F398431B02485312000530844
:100B78000F398331D92385312F00201620004808EA
:100B88008531E12585312000D0005008D300530875
:100B9800D0000430D036890BCE2D50080F39833160
:100BA80002238531200053080F3980312A208531EE
:100BB8002000C701992D803119282000CF004F0847
:100BC8000F39CC000430CC35890BE72D4F08CD0008
:100BD8000430CD36890BED2D4D080F394C04CE006D
:100BE8004E08CF004F083339CC000230CC35890B82
:100BF800FA2D4F08CD000230CD36890B002E4D0856
:100C080033394C04CE004E08CF004F085539CC007C
:100C18000130CC35890B0D2E4F3655394C04CD009B
:100C28004D08CF004F080800083023009F0090307F
:100C38009D0024309E0040309B0003309C00003013
:100C48002000CC000030CD008731222786310030CB
:100C58002000CC000030CD0087311C2786310030C1
:100C68002000CC000030CD008731282786312000B5
:100C7800CB01080087310D278631863180268631E1
:100C88008631F726863187313A27863187312E27F4
:100C9800863187313E2786318631C82686318631AE
:100CA800EB2686318731032786318631182686312F
:100CB80086319A2686310800003400340034003426
:100CC800003400340034003400340034003400347C
:100CD800003400340034003400340034003400346C
:100CE800003400340034003400340034003400345C
:100CF8000034003400340034220090018C018D014E
:100D08008E010830210090008C010F308D00BF301B
:100D18008E000E3023008D008C01240090010130DC
:100D28008D002100951322009D0108002F009113CA
:100D380001309200A0309300103095009401A0017A
:100D4800A101A301A401A601A701A901AA01B63026
:100D5800980070309900CB30910008002000931261
:100D680026001808F8007808F9001908F80078082B
:100D7800FA007A08F3007908F20020003E088A0099
:100D88003D080A0086310800043026009A009801C0
:100D9800990142302000CC000730CD00873134273C
:100DA8008631200093122100931608002000181D98
:100DB800DE2EDF2EE62E18107108970070089600B8
:100DC8001814EA2E71089700700896000800200091
:100DD80099019701960111101708C0001608BF0065
:100DE80031309800080070302100990098012200E5
:100DF800960121001A1F012F022FFD2E0800210045
:100E08001508C0391F38950020009501FD010B1108
:100E18000800240094010830950096014F30920094
:100E280095120800640080010131890B172F0034E6
:100E380020004D08C4004C08C300080020004D08DD
:100E4800C6004C08C500080020004D08C2004C0828
:100E5800C10008008830220098001030990008006E
:100E680020004D08BE004C08BD00080016302100C7
:0E0E7800970008008A3022009700080008004A
:020000040001F9
:04000E00E43FFF3F8D
:00000001FF
