:020000040000FA
:1000000080312C28911508007E1480310B1F2A287E
:100010002100111E15282000111E15282100690835
:100020008A0068080A0080312A282100911E2228AF
:100030002000911E2228210067088A0066080A0015
:1000400080312A282100931E2A282000931E2A2866
:10005000933121237E10090080312E28EC3084005A
:10006000223085000430FE000130FF0092317822FA
:100070008031FB01FC01FD0161308400003085000E
:100080000F30FE000030FF00923178228031A03026
:100090008400003085004E30FE000030FF009231B9
:1000A00078222200A001A101A201A301A401A501BF
:1000B000A601A7017E1020008E31272E2000BE0150
:1000C000BF01C001C101BA01BB01BC01BD016D305E
:1000D00086002330870005300102031871280030A4
:1000E00008006D308600233087002130010203189C
:1000F00096296D3086002330870001080319962960
:10010000C601C70187280130C6070030C73D6D30E2
:100110008600233087004708803AAF0080302F02E6
:10012000031D94280108460203180729EC3020001B
:10013000AF002230B00046082F0786004708303D48
:1001400087000B300102031C83280C30AF002330E2
:10015000B00046082F0786004708303D87000B3067
:100160000102031C83282C30AF002330B000460866
:100170002F0786004708303D87000B300102031C23
:1001800083284C30AF002330B00046082F0786008C
:100190004708303D87000B300102031C8328EC30F8
:1001A000AF002230B00046082F0786004708303DD8
:1001B00087000108B1003108BE000C30AF002330C9
:1001C000B00046082F0786004708303D8700010829
:1001D000B1003108BF002C30AF002330B00046081A
:1001E0002F0786004708303D87000108B10031081D
:1001F000C0004C30AF002330B00046082F07860007
:100200004708303D87000108B1003108C1002000D7
:100210003E0803196F283F0803196F284008031987
:100220006F28410803196F286D308600233087003E
:100230000108FF3EC600FF3003180030C700242924
:10024000FF30C607FF30C73DC71B9629EC30AF0013
:100250002230B00046082F0786004708303D87004F
:100260000B300102031C20290C30AF002330B000FA
:1002700046082F0786004708303D87000B300102F3
:10028000031C20292C30AF002330B00046082F0774
:1002900086004708303D87000B300102031C2029EF
:1002A0004C30AF002330B00046082F0786004708C7
:1002B000303D87000B300102031C2029EC30AF00D9
:1002C0002230B00046082F0786004708303D8700DF
:1002D0000108B1003108BA000C30AF002330B00083
:1002E00046082F0786004708303D87000108B10007
:1002F0003108BB002C30AF002330B00046082F0778
:1003000086004708303D87000108B1003108BC0075
:100310004C30AF002330B00046082F078600470856
:10032000303D87000108B1003108BD003E083F079D
:10033000A600A701A70D3F083E02A000A101031CD3
:10034000A1036430A2000030A30094316E248031F8
:100350002108A9002008A8008A31A7228031270897
:10036000B3002608B20040084107A600A701A70D68
:1003700041084002A000A101031CA1036430A200B7
:100380000030A30094316E2480312108A900200898
:10039000A8008A31A72280312708B5002608B400BA
:1003A0003A083B07A600A701A70D3B083A02A000A8
:1003B000A101031CA1036430A2000030A30094310A
:1003C0006E2480312108A9002008A8008A31A722C4
:1003D00080312708B7002608B6003C083D07A60074
:1003E000A701A70D3D083C02A000A101031CA10329
:1003F0006430A2000030A30094316E2480312108C3
:10040000A9002008A8008A31A72280312708B90056
:100410002608B80032083602C2003308373BC30052
:1004200034083802C4003508393BC5004208E707E4
:100430004308E83D4408E5074508E63D6808803A7A
:10044000AF0080302F02031D272A32306702031CC1
:100450002E2A01302000E30000303E2A20006808E8
:10046000803AAF007F302F02031D382ACF30670259
:100470000318402AFF302000E300FF30E400432A45
:100480002000E301E4016608803AAF0080302F02CB
:10049000031D4C2A32306502031C532A0130200010
:1004A000E1000030632A20006608803AAF007F3008
:1004B0002F02031D5D2ACF3065020318652AFF3025
:1004C0002000E100FF30E200682A2000E101E201A3
:1004D00063086404031DE92A61086204031DE92A14
:1004E0004308A1004208A000943123248031200059
:1004F0002108803AAF0080302F02031D812A14307A
:10050000200203186F2820004508A1004408A0001D
:1005100094312324803120002108803AAF008030BC
:100520002F02031D952A1430200203186F28200083
:1005300042084304031DA62A44084504031DA62AB5
:1005400001302100DA070030DB3DB32A42084304C2
:10055000031DAE2A440845040319B32A01302100C3
:10056000D8070030D93D21005B08803A2000AF0059
:1005700080302F02031DBF2A0A3021005A02031CBB
:100580006F2821005908803A2000AF0080302F02E8
:10059000031DCD2A023021005802031C6F282000C1
:1005A00042084304031DDA2A44084504031DDA2ADD
:1005B0000130E32A420843040319E72A44084504AA
:1005C0000319E72A02302100D6000030D70001309D
:1005D00008004308A1004208A00094312324803180
:1005E00020002108803AAF0080302F02031DFA2A34
:1005F0001430200203186F2820004508A100440889
:10060000A00094312324803120002108803AAF00DB
:1006100080302F02031D0E2B1430200203186F2888
:10062000200042084304031D1E2B44084504031DFB
:100630001E2B01302100DA070030DB3D21005B0872
:10064000803A2000AF0080302F02031D2A2B0A3091
:1006500021005A02031C6F282000E301E401E1019C
:10066000E201E701E801E501E6016F282000A200B0
:10067000472C2F002A152915231520152415271579
:10068000261108002F002A112915231520112411E5
:100690002711261108002F002A15291523112015CE
:1006A00024152711261508002F002A1529152315B2
:1006B000201524112711261508002F002A112915AD
:1006C0002315201124112715261508002F002A159F
:1006D00029112315201524112715261508002F0090
:1006E0002A1529112315201524152715261508006C
:1006F0002F002A1529152315201124112711261141
:1007000008002F002A152915231520152415271553
:10071000261508002F002A15291523152015241148
:100720002715261508002F002A1529152315201135
:1007300024152715261508002F002A112911231525
:10074000201524152715261508002F002A15291114
:100750002311201524152715261108002F002A1112
:1007600029152315201524152711261508002F00FB
:100770002A152911231120152415271526150800DF
:100780002F002A15291123112011241527152615AC
:1007900008002F002A1529112315201524152715C7
:1007A000261508002F002A112915231520112415BC
:1007B0002715261508002F002A15291523152015A1
:1007C00024152715261508002F002A112915231591
:1007D000201524152711261108002F002A15291588
:1007E0002315201524152715261508002F002A117A
:1007F00029112311201524152715261108002F0073
:100800002A1129112315201124152711261108005A
:100810002F002A112911231520152415271126151B
:1008200008002F002A15291523112011241527153A
:10083000261508002F002A15291523152015241523
:100840002715261508002F002A1529152315201510
:1008500024152715261508002F002A1529152315FC
:10086000201524152715261508002F002A152915EF
:100870002315201524152715261508002F002A11E9
:1008800029112311201124112711261108002208F3
:10089000A000A1012108003A03194F2C3E2C20088A
:1008A000003A0319392B013A0319422B033A031971
:1008B0004B2B013A0319542B073A03195D2B013ACC
:1008C0000319662B033A03196F2B013A0319782B8E
:1008D0000F3A0319812B013A03198A2B033A0319A2
:1008E000932B013A03199C2B073A0319A52B013AC4
:1008F0000319AE2B033A0319B72B013A0319C02B86
:100900003F3A0319392B013A0319422B033A0319D1
:100910004B2B013A0319542B073A03195D2B013A6B
:100920000319662B033A03196F2B013A0319782B2D
:100930000F3A0319812B013A03198A2B783A0319CC
:10094000932B033A03199C2B013A0319A52B073A61
:100950000319AE2B013A0319B72B033A0319C02B25
:10096000013A0319C92B0F3A0319D22B013A031983
:10097000DB2B033A0319E42B013A0319ED2B073A59
:100980000319F62B023A0319FF2B013A0319082C1D
:100990001F3A0319112C033A03191A2C073A0319A9
:1009A000232C013A03192C2C0C3A0319352C383A14
:1009B0000319932B033A03199C2B013A0319A52B16
:1009C000073A0319AE2B013A0319B72B033A03195F
:1009D000C02B013A0319C92B0F3A0319D22B013A44
:1009E0000319DB2B033A0319E42B013A0319ED2B0E
:1009F000073A0319F62B023A0319FF2B013A0319A0
:100A0000082C1F3A0319112C033A03191A2C073A20
:100A10000319232C013A03192C2C0C3A0319352CF9
:100A20003E2C0800D70193310F238531003A03197A
:100A30001F2D9131E32185314139031D022EC8015B
:100A4000C9010800AE30923136228531CA004A0809
:100A5000D60056080319022E7030C0002330C100A2
:100A60005608CA00CB01CA35CB0DCA35CB0D4A0892
:100A7000C2004B08C300FC309431A52485314008E6
:100A8000CC004C08D70004305702031C022ED801BA
:100A9000D9015908803ACA0080304A02031D522DFC
:100AA000570858020318EF2D70302000CA00233079
:100AB000CB0058084A07860059084B3D87000108BB
:100AC000CC006C308600233087000108EC3ECD005E
:100AD000CE012230CE3D4D0886004E0887004C08DE
:100AE00081007130CA002330CB0058084A078600C5
:100AF00059084B3D87000108CC006C30860023303C
:100B000087000108CD00CE010C30CF002330D0008B
:100B10004D084F07D1004E08503DD20051088600C5
:100B2000520887004C0881007230CA002330CB0085
:100B300058084A07860059084B3D87000108CC0039
:100B40006C308600233087000108CD00CE012C30A8
:100B5000CF002330D0004D084F07D1004E08503D44
:100B6000D20051088600520887004C08810073307B
:100B7000CA002330CB0058084A07860059084B3D6D
:100B800087000108CC006C30860023308700010804
:100B9000CD00CE014C30CF002330D0004D084F07A0
:100BA000D1004E08503DD2005108860052088700FF
:100BB0004C0881000130CA006C3086002330870069
:100BC0004A0881070130CA006D3086002330870053
:100BD0004A0881070430D8070030D93D492D8031BB
:100BE0005E208531003A0319F82D8F3109278531B0
:100BF0006C3086002330870081016D308600233001
:100C000087008101640002302000CB003830CA0028
:100C1000AD30890B092ECA0B092ECB0B092EAF3034
:100C2000923136228531CA004A08D5005518222D46
:100C300002302000CB003830CA00AD30890B1E2EA8
:100C4000CA0B1E2ECB0B1E2E8F310927853121009A
:100C500055082000D400210054082000D30094310E
:100C6000892420005408C9005308C80008009230A5
:100C7000923136228631C6004608C700AB3047069F
:100C80000319482E9C3047060319482E00300800EF
:100C9000C10107308A315C228631003A0319462EA1
:100CA000DB30C6004608B90081309231912286318E
:100CB000003A0319462EF630C6004608B9008330C4
:100CC000923191228631003A0319462E8730C600B0
:100CD0004608B9008E30923191228631003A0319CC
:100CE000462EB9019D30923191228631003A031986
:100CF000462EB9019E30923191228631003A031975
:100D0000462E6030C6004608B9008D3092319122DF
:100D10008631003A0319462E00309631E42686319A
:100D2000003A0319462E0230973112278631003AD5
:100D30000319462E01309531C2258631003A031938
:100D4000462E00309231DE228631003A0319462EBB
:100D500032309231CE228631003A0319462EFF30CE
:100D6000BD00FF30BE009531A0258631003A031941
:100D7000462E0030BD00BE0095317E258631003AFA
:100D80000319462E1130C6004608B9008C30923146
:100D900091228631003A0319462EB901B90A9030E2
:100DA000923191228631003A0319462EB9019F30C3
:100DB000923191228631003A0319462E2830923121
:100DC000AE228631003A0319462E1E309231BE22E1
:100DD0008631003A0319462E4030C6004608B90055
:100DE000A230923191228631003A0319462E023008
:100DF000963188268631003A0319462E0030963106
:100E0000B6268631003A0319462E01309531E52584
:100E10008631003A0319462EB901A430923191224D
:100E20008631003A0319462EB901A530923191223C
:100E30008631003A0319462EB901A730923191222A
:100E40008631003A0319462EB901A9309231912218
:100E50008631003A0319462EC930C6004608B9004B
:100E6000A630923191228631003A0319462EB901FB
:100E7000AA30923191228631003A0319462E003071
:100E8000963108268631003A0319462E01300800B3
:100E90000030F000F10092319F228731343073022C
:100EA000593003197202031C682F35307302203049
:100EB000031972020318682FFB01FC01EA012100EB
:100EC000EA012000EB010130F4007408E900080099
:100ED0002B3073028F3003197202031C7B2F2C30CE
:100EE000730256300319720203187B2F0330F4008B
:100EF0007408E900080008307302673003197202B1
:100F0000031CD22F093073022E300319720203180A
:100F1000D22F08307B020318942F0310EB0D013001
:100F2000F4007408EB07B52F10307B020318A02FD4
:100F300003102100EA0D0130F4007408EA07B52F10
:100F400018307B020318AB2F0310EA0D0130F400B8
:100F50007408EA07B52F20307B020318B52F031061
:100F6000FC0D0130F4007408FC070130F400740833
:100F7000FB0720307B06031D08007C09F400F50107
:100F8000F50920006A08F600F70175087706031DC9
:100F9000CB2F74087606031D08000230F400740895
:100FA000E900080003307302FD3003197202031CCC
:100FB000080004307302C4300319720203180800D9
:100FC00008307B020318E72F0310EB0DB52F10300C
:100FD0007B020318EF2F03102100EA0DB52F183004
:100FE0007B020318F62F0310EA0DB52F20307B0289
:100FF0000318B52F0310FC0DB52F1630970008000D
:101000002400110808002000C60002309731122782
:101010008831003A0319080000309631E4268831FF
:10102000003A031908004608031918280130192846
:101030000030973140278831003A03190800923177
:1010400084228831003A03190800C101C10A023024
:101050008A315C220800A501A60120082104031999
:101060005A28A701A70AA11B3F280130A035A10DCE
:10107000890B36280130A4002408A7073328013043
:10108000A535A60D890B402821082302031D4A28F7
:1010900020082202031C51282008A2022108A33B99
:1010A00025140130A136A00C890B52280130A7026B
:1010B000031D3F282608A1002508A00008002000E5
:1010C0006C08C43E86008701810123001D1D742821
:1010D00020006C08C43E8600870181142100650849
:1010E0008A0064080A00883123009D1C83282000A0
:1010F0006C08C43E860087010115210063088A0040
:1011000062080A00883120006C08C43E860087010E
:10111000010803199228210061088A0060080A006A
:101120008831080094313B240800A30023080F39BC
:10113000A0000430A035890B9A282308A1000430B0
:10114000A136890BA02821080F392004A20022080B
:10115000A30023083339A0000230A035890BAD2845
:101160002308A1000230A136890BB32821083339A6
:101170002004A2002208A30023085539A000013052
:10118000A035890BC028233655392004A100210839
:10119000A30023080800BB003808BF003708BE00C2
:1011A0003A08BD003908BC003B08893187218831E5
:1011B000003A0319D4283C30A9001530AA003C306D
:1011C000AB000030AC009231602288313630A00094
:1011D0000030A1000130A2000030A300933136237B
:1011E000883100302000A900AA00AB0192316C22A6
:1011F00088319131AB2188319431DE248831013A34
:10120000031D0800FC2891125F302000A000083068
:10121000A10092310B2289311112C1302000A000AF
:101220001430A100923113228931083023009F002D
:1012300090309D0024309E0040309B0003309C0085
:1012400062302000A0001130A1009131FB218931D2
:101250007F302000A0001130A1009231032289319B
:1012600067302000A0001130A1009131F321EC0182
:101270002000EF01EE010830A2002208ED00EC0191
:10128000FD012100ED0191160800AD01AE01AF0195
:10129000B00128082904031982290A30A00000306F
:1012A000A1002908A3002808A20096312F26893121
:1012B0002008AA002108AB002F08AC000130AC3593
:1012C000FF3E031D5F292C35890A6829AA35AB0D1D
:1012D000890B66292A08AD042B08AE040130AF073C
:1012E0000030B03D0A30A0000030A1002908A30062
:1012F0002808A20088312B2089312108A900200864
:10130000A80049292E08A9002D08A8000800A0005F
:10131000A101A10A21004319C829BC308600003070
:1013200087002000200881002100C31043154310CE
:10133000C1308600003087000E308100F430BA00E2
:101340000130BB00C3156330A0001130A100AC0117
:10135000AD016330A2001130A300AE01AF016330D4
:10136000A4001130A500B001B1016330A600113016
:10137000A700B201B3016530A8001130A900B40183
:10138000B50191316A21893192314A222000A101AF
:10139000200021080800B8002A30B7003708BC0038
:1013A0000230BA000030BB0038088931872189310A
:1013B000003A0319D429DB30A9001330AA003C30CD
:1013C000AB000030AC009231602289313630A00091
:1013D0000030A1000130A2000030A3009331362379
:1013E000893100302000A900AA00AB0192316C22A3
:1013F00089319131AB2189319431DE248931B700B3
:101400003708B90039030319FC2939080319102AD0
:10141000FF30BA07FF30BB3D3A083B04031DD42917
:101420003C080800883100208A312000AF002100EC
:101430003D0886003E08870020002F08810001300B
:101440002100BD070030BE3D0130BF020030C03B6F
:101450003F0840040319302A9131872105300800E4
:10146000C315382A9131A321080091319F2108002A
:101470002D082000AE0021002C082000AD00210026
:1014800021088A0020080A008A312000AF00B0013C
:101490003008003A03194D2A352A2F08013A03195A
:1014A000352A033A0319322A013A0319322A073A34
:1014B0000319352A352A0800C5009131E3218A3104
:1014C000C2004208C400440A031D682A0030080014
:1014D00041080139C2004208C10007304502031823
:1014E0008D2A41080319802A0130C200450A792A51
:1014F000C235890B782A4208C3004308C4049A2ADB
:101500000130C200450A852AC235890B842A420867
:10151000FF3AC3004308C4059A2A07304506031D55
:101520009A2A41080319992A7F30C2004208C40050
:101530009A2AC4014408C2004208B900803092319E
:1015400091228A31003A0319662A01300800AC0161
:10155000A71FB12AA609A709A60A0319A70AAC0161
:10156000AC0AA91FBC2AA809A909A80A0319A90A33
:101570000130AA002A08AC06AD01AE0126082704F6
:101580000319EB2AAB01AB0AA71BD02A0130A63501
:10159000A70D890BC72A0130AA002A08AB07C42A65
:1015A0000130AD35AE0D890BD12A27082902031D64
:1015B000DB2A26082802031CE22A2608A80227089C
:1015C000A93B2D140130A736A60C890BE32A013064
:1015D000AB02031DD02A2C080319F32AAD09AE096A
:1015E000AD0A0319AE0A2E08A7002D08A6000800B0
:1015F000A800200821040319242B2808A400A50111
:10160000A435A50DA030A6000030A70024082607A9
:1016100086002508273D87002008C03F2108C13FDC
:101620002808A400A501A435A50DAC30A600003003
:10163000A7002408260786002508273D87002208E2
:10164000C03F2308C13F08002808A400A501A43515
:10165000A50DA030A6000030A700240826078600AC
:101660002508273D87006330C03F1130C13F28085F
:10167000A400A501A435A50DAC30A6000030A7003C
:101680002408260786002508273D87000030C03F34
:10169000C13F08009131C8218B31003A031D5A2BFC
:1016A000822B91318B21080091318F2108009131DB
:1016B00097210800210033082000AE0021003208E5
:1016C0002000AD00A0308600003087004631413F49
:1016D0008A00403F0A008B312000AF00B001300883
:1016E000003A0319742B572B2F08013A0319572B73
:1016F000033A0319512B013A0319542B073A0319E2
:10170000572B572B210043103E082000B00021002A
:101710003D082000AF002100BD0A0319BE0A2000C9
:101720002F0886003008870001089131C2218B31D3
:1017300001302100BF020030C03B3F084004031DC0
:10174000A32B0630080003300800A200402C2F0015
:101750002916A917A317A01723162616A6130800E3
:101760002F002912A917A317A01323122612A613BC
:1017700008002F002916A917A313A0172316261255
:10178000A61708002F002916A917A317A0172312C0
:101790002612A61708002F002912A917A317A013B5
:1017A00023122616A61708002F002916A913A3171F
:1017B000A01723122616A61708002F002916A91312
:1017C000A317A01723162616A61708002F00291600
:1017D000A917A317A01323122612A61308002F007F
:1017E0002916A917A317A01723162616A61708004F
:1017F0002F002916A917A317A01723122616A6171C
:1018000008002F002916A917A317A01323162616C0
:10181000A61708002F002912A913A317A017231633
:101820002616A61708002F002916A913A313A01720
:1018300023162616A61308002F002912A917A3178E
:10184000A01723162612A61708002F002916A9177D
:10185000A313A01323162616A61708002F00291677
:10186000A913A313A01323162616A61708002F00EA
:101870002912A913A313A01323122612A6130800DA
:101880002208A000A1012108003A0319482C372C96
:101890002008003A0319A72B013A0319B02B033A89
:1018A0000319B92B013A0319C22B073A0319CB2BA1
:1018B000013A0319D42B033A0319DD2B013A03191A
:1018C000E62B0F3A0319EF2B013A0319F82B033AD1
:1018D0000319012C013A03190A2C073A0319132C96
:1018E000013A03191C2C033A0319252C013A031958
:1018F0002E2C372C0800A200162D2F00A9162A1610
:1019000024162116A316A616271208002F00A912C6
:101910002A1624162112A312A612271208002F003D
:10192000A9162A1624122116A316A6122716080095
:101930002F00A9162A1624162116A312A61227165E
:1019400008002F00A9122A1624162112A312A61687
:10195000271608002F00A9162A1224162116A312F2
:10196000A616271608002F00A9162A1224162116DB
:10197000A316A616271608002F00A9162A16241645
:101980002112A312A612271208002F00A9162A1648
:1019900024162116A316A616271608002F00A9162E
:1019A0002A1624162116A312A616271608002F00A1
:1019B000A9162A1624162112A316A6162716080001
:1019C0002F00A9122A1224162116A316A6162716CE
:1019D00008002F00A9162A1224122116A316A616F3
:1019E000271208002F00A9122A1624162116A31662
:1019F000A612271608002F00A9162A122412211653
:101A0000A316A616271608002F00A9162A122412BC
:101A10002112A316A616271608002F00A9122A12B3
:101A200024122112A312A612271208002208A000D5
:101A3000A1012108003A03191E2D0D2D2008003A9E
:101A400003197D2C013A0319862C033A03198F2CB4
:101A5000013A0319982C073A0319A12C013A0319EA
:101A6000AA2C033A0319B32C013A0319BC2C0F3AE0
:101A70000319C52C013A0319CE2C033A0319D72CAC
:101A8000013A0319E02C073A0319E92C013A03192A
:101A9000F22C033A0319FB2C013A0319042D0D2DE6
:101AA0000800A200EC2D2F00A915A914A314A0145E
:101AB000A315A615A61008002F00A911A914A31498
:101AC000A010A311A611A61008002F00A915A91493
:101AD000A310A014A315A611A61408002F00A91581
:101AE000A914A314A014A311A611A61408002F0072
:101AF000A911A914A314A010A311A615A6140800D7
:101B00002F00A915A910A314A014A311A615A6149B
:101B100008002F00A915A910A314A014A315A61539
:101B2000A61408002F00A915A914A314A010A3112E
:101B3000A611A61008002F00A915A914A314A0141B
:101B4000A315A615A61408002F00A915A914A314FF
:101B5000A014A311A615A61408002F00A915A914F6
:101B6000A314A010A315A615A61408002F00A911F0
:101B7000A910A314A014A315A615A61408002F00DD
:101B8000A915A910A310A014A315A615A610080046
:101B90002F00A911A914A314A014A315A611A6140B
:101BA00008002F00A915A910A310A014A315A615AD
:101BB000A61408002F00A915A910A310A010A315A2
:101BC000A615A61408002F00A911A910A310A01093
:101BD000A311A611A61008002208A000A101210847
:101BE000003A0319F42DE32D2008003A0319532D70
:101BF000013A03195C2D033A0319652D013A0319C3
:101C00006E2D073A0319772D013A0319802D033AF7
:101C10000319892D013A0319922D0F3A03199B2DAF
:101C2000013A0319A42D033A0319AD2D013A031902
:101C3000B62D073A0319BF2D013A0319C82D033AEF
:101C40000319D12D013A0319DA2DE32D080095313E
:101C50005D258E312000E901FC01EA012100EA0145
:101C60002000EB014830A0000730A1009131EB21AA
:101C70008E318B170B17863137268E31003A0319B8
:101C8000462E0130DF000030E000482EDF01E00189
:101C90005F080F39833136238E31003088310320BD
:101CA0008E3164002F00A012A01121112012923158
:101CB0001B228E31DA00DB015A08DC005B08DD00F4
:101CC00093310F238E31003A031D752E912E55301E
:101CD000BC2E4430BC2E4C30BC2E5230BC2E4E306C
:101CE000BC2E4630BC2E0030BC2E853112258E31E4
:101CF0004908003A03197D2E732E4808013A03194A
:101D00006B2E033A03196D2E013A0319672E073A19
:101D10000319692E013A03196F2E033A0319712E24
:101D2000732E5D08A9005C08A800893145218E3119
:101D30002908E0002808DF006008DB005F08DA00FF
:101D40005B0E0F39DA00DB015A080F398B31A523FE
:101D50008E31200060080F398C317B248E312000B9
:101D60005F08DA000430DA36890BB32E5A080F39CF
:101D70008D3151258E315030833136238E311130E3
:101D80002000DB003C30DA00CB30890BC52EDA0BAB
:101D9000C52EDB0BC52E0230200069060319D42E98
:101DA00003306906031D512E6B08883195208E3152
:101DB000DA005A08DE005E08DA000430DA36890BF1
:101DC000DE2E5A080F398B31A5238E3120005E0894
:101DD0000F398C317B248E31201620006A0888311F
:101DE00095208E31DA005A08DE005E08DA000430F1
:101DF000DA36890BF82E5A080F398D3151258E317C
:101E000020005E080F39833136238E312000E9012E
:101E1000512E210056035704031D142F0530D40002
:101E20000030D50001300800023056065704031D6B
:101E30001F2F0630D4000030D500013008002000EC
:101E4000630A031D2C2F640A031D2C2F61086204F2
:101E5000031D2C2F03304B2F63036404031D362F07
:101E600061086204031D362F04304B2F630864049D
:101E7000031D402F61036204031D402F02304B2FCE
:101E800063086404031D502F610A031D502F620A6A
:101E9000031D502F01302100D4000030D500FE2F4B
:101EA000630A031D7B2F640A031D7B2F61036204F9
:101EB000031D7B2F6608A1006508A0009431232430
:101EC0008F3120002008A4002108A5006808A10087
:101ED0006708A000943123248F3120002508803A20
:101EE000A6002108803A2602031D782F200824022C
:101EF000031C2A2F3E2F63036404031DA62F610ACF
:101F0000031DA62F620A031DA62F6608A1006508FF
:101F1000A000943123248F3120002008A400210840
:101F2000A5006808A1006708A000943123248F3120
:101F300020002508803AA6002108803A2602031DC9
:101F4000A32F20082402031C342F4A2F630A031DE9
:101F5000D32F640A031DD32F610A031DD32F620AF6
:101F6000031DD32F6608A1006508A0009431232427
:101F70008F3120002008A4002108A5006808A100D6
:101F80006708A000943123248F3120002508803A6F
:101F9000A6002108803A2602031DD02F2008240223
:101FA000031C2A2F4A2F63036404031DFC2F6103C3
:101FB0006204031DFC2F6608A1006508A00094318F
:101FC00023248F3120002008A4002108A5006808E0
:101FD000A1006708A000943123248F312000250838
:101FE000803AA6002108803A2602031DF92F200816
:101FF0002402031C342F3E2F00300800013008005B
:1022C20008000800013008000530080094313B2462
:1022D2000800200091110800240095120800210036
:1022E2009111080024001614080024009614080016
:1022F20024001615080024009615080023001D125C
:102302001D160800240096161616080024009612C0
:10231200161608009131762101300800913176219C
:102322000230080091317621013008009131792183
:102332000030080091318721053008009131832156
:102342000A300800913183210930080020009119D8
:102352000800A72900309431FB2408008A302200AB
:10236200970008002100C310C2010E3008002100AE
:10237200C310C2010E300800883098001030990056
:1023820008002000A000200824009100080024007A
:10239200160E890C890C0139080021004310913175
:1023A2007C2104300800210043143C359131C221C4
:1023B200033008002100431403143C0D9131C22163
:1023C20005300800803092313622BF003F08C0003D
:1023D2004008080021082100DD002000200821001B
:1023E200DC00080021082100E10020002008210073
:1023F200E000080021082100E5002000200821005B
:10240200E400080021082100E30020002008210048
:10241200E200080021082100E70020002008210036
:10242200E600080021082100E90020002008210020
:10243200E80008009C3092313622BF003F08C000FD
:1024420040080800240094010830950096014F309E
:102452009200951208002100C31C08009131A721A7
:10246200923196315B2692312C2A2000BE003E0822
:10247200BD003D08B60039308931CB2108007030EB
:102482002100990098012200960121001A1B0800E0
:10249200462A2400951A08009401083095009601F6
:1024A2004F3092009516080021001508C0391F38D8
:1024B2009500200095012100EB010B1108002A086C
:1024C200A1002908A0002C08A3002B08A2000030BC
:1024D2008A31F82208002A08A1002908A0002B0846
:1024E200A2000030A30002308A31F8220800640002
:1024F200800101310130FE020030FF3B7F087E0483
:1025020003190034792AC101C10A00308A315C22E0
:102512009231003A031D8F2A003008000130080072
:10252200BC003C08BA003A08B6003908BB003B08B8
:10253200B700393097316E27013008002000181D8E
:10254200A92A18107108970070089600181408003C
:1025520071089700700896000800BE003E08BD0092
:102562003D08B900A030923191229231003A031D08
:10257200BC2A0030080001300800BE003E08BD0041
:102582003D08B900A130923191229231003A031DE7
:10259200CC2A0030080001300800BE003E08BD0011
:1025A2003D08B9008B30923191229231003A031DDD
:1025B200DC2A0030080001300800BE003E08BD00E1
:1025C2003D08B9008930923191229231003A031DBF
:1025D200EC2A003008000130080020009901970120
:1025E2009601111017082100DF00200016082100B3
:1025F200DE003130200098000800043026009A00E6
:102602009801990161302000A0001130A1009131A0
:10261200EB2120009312210093160800AF30923173
:1026220036229331BF003F08C0000130BF003F088F
:10263200C0054003031D1F2B0130080000300800B5
:10264200931226001808F8007808F9001908F80013
:102652007808FA007A08F3007908F20021005D0890
:102662008A005C080A00933108002100C31D08009B
:10267200200021082100BE00200020082100BD000A
:10268200200023082100C000200022082100BF00F2
:10269200C311080020002E08A1002D08A00002305E
:1026A200A2000030A3009331362393310030200082
:1026B200A900AA000030AB000030AC0092316022C9
:1026C2000430080020002E08A1002D08A0000130CF
:1026D200A2000030A3009331362393310030200052
:1026E200A900AA000030AB000030AC009231602299
:1026F2000230080020002E08A1002D08A0000230A0
:10270200A2000030A3009331362393310030200021
:10271200A900AA000030AB000030AC009231602268
:102722000230080020002E08A1002D08A000013070
:10273200A2000030A30093313623933100302000F1
:10274200A900AA000030AB000030AC009231602238
:102752000430080020002E08A1002D08A00002303D
:10276200A2000030A30093313623933100302000C1
:10277200A900AA000030AB000030AC009231602208
:102782000430080020002E08A1002D08A00001300E
:10279200A2000030A3009331362393310030200091
:1027A200A900AA000030AB000030AC0092316022D8
:1027B2000430080020002E08A1002D08A0000130DE
:1027C200A2000030A3009331362393310030200061
:1027D200A900AA000030AB000030AC0092316022A8
:1027E2000230080020002E08A1002D08A0000230AF
:1027F200A2000030A3009331362393310030200031
:10280200A900AA000030AB000030AC009231602277
:10281200023008002F00911301309200A030930083
:10282200103095009401A001A101A301A401A60109
:10283200A701A901AA01BE30980014309900CB303B
:10284200910008002108803AA20080302202031D74
:102852002C2C013020020318080020002009A200BD
:102862002109A300A20A0319A30A2208A00023082F
:10287200A100080023001908F00020006C08203E87
:10288200860001308700700881000130F000700876
:10289200EC0708306C020318EC010130F0007008FC
:1028A2002100ED070800220090018C018D018E01AC
:1028B2000830210090008C01CF308D009B308E00BB
:1028C2000E3023008D008C012400900101308D0018
:1028D2002100951322009D010800A401A501201CDE
:1028E200762C2208A4072308A53D0130A235A30DAA
:1028F200890B772C0130A136A00C890B7C2C200887
:102902002104031D702C2508A1002408A000080042
:102912006C3086002330870081016D3086002330C1
:1029220087008101E701E801E501E601E301E40135
:10293200E101E2012100DA01DB01D801D901D6016E
:10294200D701D401D5010800C6004208C4004408DA
:10295200C7004608C4004408B6004108B800400851
:10296200B7004308BA004208B90039308831CB2099
:102972004708C400C5014408C0004508C10008005A
:10298200083020006D020318DB2C6E08CC3E860056
:102992008701010823009A000130F000700820002E
:1029A200EE0708306E020318EE010130F0007008E5
:1029B200ED070800210011120800A101A10A21005F
:1029C200C318F82C4311BC30860000308700FF305A
:1029D200810091316A219431913170219431913188
:1029E2006D21210042082000A0002008A100200043
:1029F20021080800B400B501B50A2100C318182D3A
:102A0200C3142000B501340803190D2DC13086000E
:102A1200003087000130122DC1308600003087005F
:102A22000230810091317321943192312C222000A5
:102A32003508080020002D0886002E088700423144
:102A4200403FA000413FA1002D0886002E088700CC
:102A5200403FA200413FA30093313623953100301D
:102A62002000A900AA000030AB000030AC00923177
:102A720060220230080020002D0886002E08870000
:102A82004231403FA000413FA1002D0886002E08A0
:102A92008700403FA200413FA30093313623953186
:102AA20000302000A900AA000030AB000030AC00CA
:102AB2009231602202300800923123229531943102
:102AC200542495319231402295318731FD27953139
:102AD2009131AF2195319131BD2195319231FE2253
:102AE20095319231EE2295319231552295318931CB
:102AF2000321953194310B2408003D08BF003F08A3
:102B0200C0003E08BF003F08C1004008BF003F08A8
:102B1200B9008630923191229531003A031D932DEE
:102B2200003008004108BF003F08B90087309231E9
:102B320091229531003A0319912D013008003D0888
:102B4200BF003F08C0003E08BF003F08C100400868
:102B5200BF003F08B9008430923191229531003A8A
:102B6200031DB52D003008004108BF003F08B90021
:102B72008530923191229531003A0319B32D0130FB
:102B82000800C0008F30923136229531BF003F08D5
:102B9200C1000330BF003F08C005FC30BF003F0842
:102BA200C1054008BF003F08C1044108BF003F08FB
:102BB200B9008F30923191229531003A031DE32DF5
:102BC2000030080001300800C000A33092313622E4
:102BD2009531BF003F08C1000730BF003F08C00564
:102BE200F830BF003F08C1054008BF003F08C104DC
:102BF2004108BF003F08B900A330923191229531BC
:102C0200003A031D062E0030080001300800C10002
:102C1200AB30923136229631BF003F08C0000130FE
:102C2200BF003F08C1054135BF003F08C100FD306C
:102C3200BF003F08C0054108BF003F08C00440086C
:102C4200BF003F08B900AB30923191229631003A71
:102C5200031D2D2E00300800013008002008210439
:102C62000319562EA501A50AA11B412E0130A0353C
:102C7200A10D890B382E0130A4002408A507352E9A
:102C820021082302031D472E20082202031C4D2E79
:102C92002008A2022108A33B0130A136A00C890B17
:102CA2004E2E0130A502031D412E2308A100220849
:102CB200A000080091316A2196312100431C6D2E3B
:102CC2009131C8219631003A03196D2EC130860028
:102CD200003087000F308100210041082000B10040
:102CE200B201B135B20D0030310784009830323D67
:102CF2008500013F8A00003F0A0096312000B300A0
:102D0200C130860000308700330881000800C2000D
:102D1200A330923136229631BF003F08C100033002
:102D2200BF003F08C2054208BF000430BF35FF3E66
:102D3200031D972E3F35C0004008C2009F30BF00E0
:102D42003F08C1054208BF003F08C1044108BF0057
:102D52003F08B900A330923191229631003A031D07
:102D6200B42E0030080001300800C200A3309231B6
:102D720036229631BF003F08C1000330BF003F0832
:102D8200C2054208BF000230BF35FF3E031DC52EFB
:102D92003F35C0004008C200E730BF003F08C10510
:102DA2004208BF003F08C1044108BF003F08B90004
:102DB200A330923191229631003A031DE22E003067
:102DC200080001300800C2008F309231362296315D
:102DD200BF003F08C1000330BF003F08C2054208E0
:102DE200BF000530BF35FF3E031DF32E3F35C00047
:102DF2004008C2003F30BF003F08C1054208BF0083
:102E02003F08C1044108BF003F08B9008F3092312A
:102E120091229631003A031D102F00300800013034
:102E22000800C2008F30923136229731BF003F082E
:102E3200C1000330BF003F08C2054208BF00013095
:102E4200BF35FF3E031D212F3F35C0004008C200A1
:102E5200F330BF003F08C1054208BF003F08C1046C
:102E62004108BF003F08B9008F309231912297315B
:102E7200003A031D3E2F0030080001300800C20056
:102E82008030923136229731BF003F08C1000130B5
:102E9200BF003F08C2054208BF000430BF35FF3EF5
:102EA200031D4F2F3F35C0004008C200DF30BF0076
:102EB2003F08C1054208BF003F08C1044108BF00E6
:102EC2003F08B9008030923191229731003A031DB8
:102ED2006C2F0030080001300800B8003808893132
:102EE20087219731003A03196F2FC330A90013309D
:102EF200AA003730AB000030AC009231602297312B
:102F02003630A0000030A1000130A2000030A30042
:102F120093313623973100302000A900AA00AB017B
:102F220092316C2297319131AB2197319431DE2469
:102F32009731013A031D0800972F2100C315AB2FCB
:102F42009131932108008031022003300800913131
:102F5200972108002D082000AE0021002C08200037
:102F6200AD00210021088A0020080A0097312000C4
:102F7200AF00B0013008003A0319C02FA82F2F0864
:102F8200013A0319A82F033A0319A12F013A031991
:102F9200A12F073A0319A42FA82F080021004310DC
:102FA200C23086000030870002308100DE2F91316E
:102FB2009321080091319721080031082000AE00CA
:102FC200210030082000AD00A030860000308700CC
:102FD2004431413F8A00403F0A0097312000AF0050
:102FE200B0013008003A0319F72FDB2F2F08023AFD
:102FF2000319D82F013A0319D82FDB2F0800B33455
:103002001134DB341134D43411344A340B341234D5
:103012000A34CE3411349E3417348B3411348F3445
:10302200113493341134973411349B3411349F3456
:0E3032001134A3341134B8341134CF341734B0
:020000040001F9
:04000E00E43FFF3F8D
:00000001FF
