:020000040000FA
:08000000803102288731F42F42
:1007CC008A3022009700080016302100970008009C
:1007DC008830220098001030990008007108200021
:1007EC00C0007008BF00080071082000C400700829
:1007FC00C300080071082000C2007008C100080086
:10080C00640080010131890B072C00342400940111
:10081C000830950096014F30920095120800210087
:10082C001508C0391F38950020009501FD010B11EA
:10083C0008007030210099009801220096012100D7
:10084C001A1F292C2A2C252C08002000990197010D
:10085C00960111101708BE001608BD000130980053
:10086C0008002F00911301309200A030930010303B
:10087C0095009401A001A101A301A401A601A70167
:10088C00A901AA01B630980070309900CB309100C4
:10089C000800220090018C018D018E01083021008E
:1008AC0090008C010F308D00BF308E000F30230074
:1008BC008D008C01240090018D01210095172200E0
:1008CC009D01080084310C24843184314F248431FF
:1008DC0084311F2484318331EA2384318331EE2324
:1008EC0084318331E623843184312B248431843167
:1008FC001524843184318724843184313724843124
:10090C000800083023009F0090309D0024309E008A
:10091C0040309B0003309C000030F0000030F100B0
:10092C008331FA2384310030F0000030F10084313F
:10093C00002484310030F0000030F1008331F423C6
:10094C0084312000C5010800700871040319AF2C14
:10095C00B02CD92CF501F50ABC2C0130F035F10D79
:10096C00890BB42C0130F4007408F507F11FBF2C6F
:10097C00C02CB32C71087302031DC62C70087202B4
:10098C00031CC92CCA2CCE2C7008F2027108F33B44
:10099C000130F136F00C890BCF2C0130F502031D20
:1009AC00D82CD92CC02C7308F1007208F000080068
:1009BC00F501F601700871040319E52CE62C152DD0
:1009CC00F701F70AF22C0130F035F10D890BEA2C06
:1009DC000130F4007408F707F11FF52CF62CE92C04
:1009EC000130F535F60D890BF72C71087302031DD8
:1009FC00012D70087202031C042D052D0A2D7008A0
:100A0C00F2027108F33B75140130F136F00C890BCE
:100A1C000B2D0130F702031D142D152DF62C760825
:100A2C00F1007508F00008002000C601C701C801DC
:100A3C00C901552D0A30F0000030F1007908F3009F
:100A4C007808F2008431AA2485317008FA00710804
:100A5C00FB0020004808FC000130FC35FF3E031D64
:100A6C00332D7C35890A3C2DFA35FB0D890B3A2D3B
:100A7C007A08C6047B08C7040130C8070030C93D9A
:100A8C000A30F0000030F1007908F3007808F20029
:100A9C008431DE2485317108F9007008F80078087B
:100AAC007904031D5A2D5B2D202D20004708F900D9
:100ABC004608F80008002000CC01CD0184316824E0
:100ACC008531640020004D08F9004C08F800853190
:100ADC001A25853179082000CF007808CE004F0800
:100AEC00CB004E08CA004B0E0F39CA00CB014A0886
:100AFC000F398531BC25853120004F080F398631DF
:100B0C004A26853120004F08CB004E08CA0004301D
:100B1C00CB36CA0C890B8E2D4A080F398631D82654
:100B2C00853120004E080F39873166278531013019
:100B3C002000CC070030CD3D27304D02103003197A
:100B4C004C02031CAA2DAB2DAD2DCC01CD011130C7
:100B5C002000CB003C30CA00CB30890BB32DCA0B24
:100B6C00B32DCB0BB32D672D80310228F200212E33
:100B7C002F002916A917A317A01723162616A6139C
:100B8C00492E2F002912A917A317A01323122612DE
:100B9C00A613492E2F002916A917A313A017231645
:100BAC002612A617492E2F002916A917A317A0172E
:100BBC0023122612A617492E2F002912A917A317A4
:100BCC00A01323122616A617492E2F002916A91397
:100BDC00A317A01723122616A617492E2F00291685
:100BEC00A913A317A01723162616A617492E2F00F4
:100BFC002916A917A317A01323122612A613492EE0
:100C0C002F002916A917A317A01723162616A61707
:100C1C00492E2F002916A917A317A0172312261641
:100C2C00A617492E2F002912A913A313A0132312C0
:100C3C002612A613492E7208F000F1017108003A31
:100C4C000319292E182E7008003A0319BE2D013AEB
:100C5C000319C72D033A0319D02D013A0319D92DC5
:100C6C00073A0319E22D013A0319EB2D033A031944
:100C7C00F42D013A0319FD2D0F3A0319062E013AF2
:100C8C0003190F2E182E0800F200AF2E2F00A916F4
:100C9C002A1624162116A316A6162712D72E2F00B5
:100CAC00A9122A1624162112A312A6122712D72E25
:100CBC002F00A9162A1624122116A316A6122716DF
:100CCC00D72E2F00A9162A1624162116A312A61207
:100CDC002716D72E2F00A9122A1624162112A3127A
:100CEC00A6162716D72E2F00A9162A12241621165F
:100CFC00A312A6162716D72E2F00A9162A122416D1
:100D0C002116A316A6162716D72E2F00A9162A16BB
:100D1C0024162112A312A6122712D72E2F00A916C1
:100D2C002A1624162116A316A6162716D72E2F0020
:100D3C00A9162A1624162116A312A6162716D72E84
:100D4C002F00A9122A1224122112A312A612271262
:100D5C00D72E7208F000F1017108003A0319B72E72
:100D6C00A62E7008003A03194C2E013A0319552E81
:100D7C00033A03195E2E013A0319672E073A031939
:100D8C00702E013A0319792E033A0319822E013A77
:100D9C0003198B2E0F3A0319942E013A03199D2E29
:100DAC00A62E0800F2003D2F2F00AA16A914A3149A
:100DBC00A014A416A716A610652F2F00AA12A9140A
:100DCC00A314A010A412A712A610652F2F00AA1608
:100DDC00A914A310A014A416A712A614652F2F00F3
:100DEC00AA16A914A314A014A412A712A614652F52
:100DFC002F00AA12A914A314A010A412A716A614AB
:100E0C00652F2F00AA16A910A314A014A412A716BC
:100E1C00A614652F2F00AA16A910A314A014A416AB
:100E2C00A716A614652F2F00AA16A914A314A01098
:100E3C00A412A712A610652F2F00AA16A914A3148A
:100E4C00A014A416A716A614652F2F00AA16A91471
:100E5C00A314A014A412A716A614652F2F00AA126F
:100E6C00A910A310A010A412A712A610652F720827
:100E7C00F000F1017108003A0319452F342F700866
:100E8C00003A0319DA2E013A0319E32E033A031937
:100E9C00EC2E013A0319F52E073A0319FE2E013AEE
:100EAC000319072F033A0319102F013A0319192FAD
:100EBC000F3A0319222F013A03192B2F342F080054
:100ECC00F200CB2F2F002A172915231520152417D4
:100EDC0027172611F32F2F002A132915231520115C
:100EEC00241327132611F32F2F002A17291523114A
:100EFC002015241727132615F32F2F002A17291531
:100F0C0023152015241327132615F32F2F002A132E
:100F1C00291523152011241327172615F32F2F001D
:100F2C002A17291123152015241327172615F32FFB
:100F3C002F002A17291123152015241727172615DA
:100F4C00F32F2F002A1729152315201124132713EB
:100F5C002611F32F2F002A172915231520152417D6
:100F6C0027172615F32F2F002A17291523152015BF
:100F7C00241327172615F32F2F002A1329112311B9
:100F8C002011241327132611F32F7208F000F101FE
:100F9C007108003A0319D32FC22F7008003A0319B5
:100FAC00682F013A0319712F033A03197A2F013A6A
:100FBC000319832F073A03198C2F013A0319952F24
:100FCC00033A03199E2F013A0319A72F0F3A03195D
:100FDC00B02F013A0319B92FC22F0800FD012030A0
:100FEC0084000030850026308431062487312000AF
:100FFC008531612D00340034003400340034003469
:10100C000034003400340034003400340034003434
:10101C000034003400340034003400340034003424
:10102C000034003400340034003400340034003414
:04103C000034003448
:020000040001F9
:04000E00E4FFFFFF0D
:00000001FF
